{
	"contracts/zombieattack.sol": {
		"ZombieAttack": {
			"abi": [
				{
					"constant": false,
					"inputs": [
						{
							"name": "_zombieId",
							"type": "uint256"
						}
					],
					"name": "levelUp",
					"outputs": [],
					"payable": true,
					"stateMutability": "payable",
					"type": "function"
				},
				{
					"constant": false,
					"inputs": [
						{
							"name": "_zombieId",
							"type": "uint256"
						},
						{
							"name": "_kittyId",
							"type": "uint256"
						}
					],
					"name": "feedOnKitty",
					"outputs": [],
					"payable": false,
					"stateMutability": "nonpayable",
					"type": "function"
				},
				{
					"constant": true,
					"inputs": [
						{
							"name": "",
							"type": "uint256"
						}
					],
					"name": "zombies",
					"outputs": [
						{
							"name": "name",
							"type": "string"
						},
						{
							"name": "dna",
							"type": "uint256"
						},
						{
							"name": "level",
							"type": "uint32"
						},
						{
							"name": "readyTime",
							"type": "uint32"
						},
						{
							"name": "winCount",
							"type": "uint16"
						},
						{
							"name": "lossCount",
							"type": "uint16"
						}
					],
					"payable": false,
					"stateMutability": "view",
					"type": "function"
				},
				{
					"constant": false,
					"inputs": [],
					"name": "withdraw",
					"outputs": [],
					"payable": false,
					"stateMutability": "nonpayable",
					"type": "function"
				},
				{
					"constant": true,
					"inputs": [
						{
							"name": "_owner",
							"type": "address"
						}
					],
					"name": "getZombiesByOwner",
					"outputs": [
						{
							"name": "",
							"type": "uint256[]"
						}
					],
					"payable": false,
					"stateMutability": "view",
					"type": "function"
				},
				{
					"constant": true,
					"inputs": [
						{
							"name": "",
							"type": "uint256"
						}
					],
					"name": "zombieToOwner",
					"outputs": [
						{
							"name": "",
							"type": "address"
						}
					],
					"payable": false,
					"stateMutability": "view",
					"type": "function"
				},
				{
					"constant": false,
					"inputs": [
						{
							"name": "_address",
							"type": "address"
						}
					],
					"name": "setKittyContractAddress",
					"outputs": [],
					"payable": false,
					"stateMutability": "nonpayable",
					"type": "function"
				},
				{
					"constant": false,
					"inputs": [
						{
							"name": "_zombieId",
							"type": "uint256"
						},
						{
							"name": "_newDna",
							"type": "uint256"
						}
					],
					"name": "changeDna",
					"outputs": [],
					"payable": false,
					"stateMutability": "nonpayable",
					"type": "function"
				},
				{
					"constant": false,
					"inputs": [
						{
							"name": "_name",
							"type": "string"
						}
					],
					"name": "createRandomZombie",
					"outputs": [],
					"payable": false,
					"stateMutability": "nonpayable",
					"type": "function"
				},
				{
					"constant": true,
					"inputs": [],
					"name": "owner",
					"outputs": [
						{
							"name": "",
							"type": "address"
						}
					],
					"payable": false,
					"stateMutability": "view",
					"type": "function"
				},
				{
					"constant": false,
					"inputs": [
						{
							"name": "_zombieId",
							"type": "uint256"
						},
						{
							"name": "_newName",
							"type": "string"
						}
					],
					"name": "changeName",
					"outputs": [],
					"payable": false,
					"stateMutability": "nonpayable",
					"type": "function"
				},
				{
					"constant": false,
					"inputs": [
						{
							"name": "_fee",
							"type": "uint256"
						}
					],
					"name": "setLevelUpFee",
					"outputs": [],
					"payable": false,
					"stateMutability": "nonpayable",
					"type": "function"
				},
				{
					"constant": false,
					"inputs": [
						{
							"name": "_zombieId",
							"type": "uint256"
						},
						{
							"name": "_targetId",
							"type": "uint256"
						}
					],
					"name": "attack",
					"outputs": [],
					"payable": false,
					"stateMutability": "nonpayable",
					"type": "function"
				},
				{
					"constant": false,
					"inputs": [
						{
							"name": "newOwner",
							"type": "address"
						}
					],
					"name": "transferOwnership",
					"outputs": [],
					"payable": false,
					"stateMutability": "nonpayable",
					"type": "function"
				},
				{
					"anonymous": false,
					"inputs": [
						{
							"indexed": false,
							"name": "zombieId",
							"type": "uint256"
						},
						{
							"indexed": false,
							"name": "name",
							"type": "string"
						},
						{
							"indexed": false,
							"name": "dna",
							"type": "uint256"
						}
					],
					"name": "NewZombie",
					"type": "event"
				},
				{
					"anonymous": false,
					"inputs": [
						{
							"indexed": true,
							"name": "previousOwner",
							"type": "address"
						},
						{
							"indexed": true,
							"name": "newOwner",
							"type": "address"
						}
					],
					"name": "OwnershipTransferred",
					"type": "event"
				}
			],
			"devdoc": {
				"methods": {
					"transferOwnership(address)": {
						"details": "Allows the current owner to transfer control of the contract to a newOwner.\r",
						"params": {
							"newOwner": "The address to transfer ownership to.\r"
						}
					}
				}
			},
			"evm": {
				"assembly": "    /* \"contracts/zombieattack.sol\":60:1096  contract ZombieAttack is ZombieHelper {\r... */\n  mstore(0x40, 0x60)\n    /* \"contracts/zombiefactory.sol\":313:315  16 */\n  0x10\n    /* \"contracts/zombiefactory.sol\":296:315  uint dnaDigits = 16 */\n  0x1\n  sstore\n    /* \"contracts/zombiefactory.sol\":346:355  dnaDigits */\n  sload(0x1)\n    /* \"contracts/zombiefactory.sol\":340:342  10 */\n  0xa\n    /* \"contracts/zombiefactory.sol\":340:355  10 ** dnaDigits */\n  exp\n    /* \"contracts/zombiefactory.sol\":322:355  uint dnaModulus = 10 ** dnaDigits */\n  0x2\n  sstore\n    /* \"contracts/zombiefactory.sol\":382:388  1 days */\n  0x15180\n    /* \"contracts/zombiefactory.sol\":362:388  uint cooldownTime = 1 days */\n  0x3\n  sstore\n    /* \"contracts/zombiehelper.sol\":125:136  0.001 ether */\n  0x38d7ea4c68000\n    /* \"contracts/zombiehelper.sol\":107:136  uint levelUpFee = 0.001 ether */\n  0x8\n  sstore\n    /* \"contracts/zombieattack.sol\":122:123  0 */\n  0x0\n    /* \"contracts/zombieattack.sol\":105:123  uint randNonce = 0 */\n  0x9\n  sstore\n    /* \"contracts/zombieattack.sol\":164:166  70 */\n  0x46\n    /* \"contracts/zombieattack.sol\":132:166  uint attackVictoryProbability = 70 */\n  0xa\n  sstore\n    /* \"contracts/ownable.sol\":523:533  msg.sender */\n  caller\n    /* \"contracts/ownable.sol\":515:520  owner */\n  0x0\n  dup1\n    /* \"contracts/ownable.sol\":515:533  owner = msg.sender */\n  0x100\n  exp\n  dup2\n  sload\n  dup2\n  0xffffffffffffffffffffffffffffffffffffffff\n  mul\n  not\n  and\n  swap1\n  dup4\n  0xffffffffffffffffffffffffffffffffffffffff\n  and\n  mul\n  or\n  swap1\n  sstore\n  pop\n    /* \"contracts/zombieattack.sol\":60:1096  contract ZombieAttack is ZombieHelper {\r... */\n  dataSize(sub_0)\n  dup1\n  dataOffset(sub_0)\n  0x0\n  codecopy\n  0x0\n  return\nstop\n\nsub_0: assembly {\n        /* \"contracts/zombieattack.sol\":60:1096  contract ZombieAttack is ZombieHelper {\r... */\n      mstore(0x40, 0x60)\n      jumpi(tag_1, lt(calldatasize, 0x4))\n      calldataload(0x0)\n      0x100000000000000000000000000000000000000000000000000000000\n      swap1\n      div\n      0xffffffff\n      and\n      dup1\n      0xce90ec2\n      eq\n      tag_2\n      jumpi\n      dup1\n      0x17a7f4cc\n      eq\n      tag_3\n      jumpi\n      dup1\n      0x2052465e\n      eq\n      tag_4\n      jumpi\n      dup1\n      0x3ccfd60b\n      eq\n      tag_5\n      jumpi\n      dup1\n      0x4412e104\n      eq\n      tag_6\n      jumpi\n      dup1\n      0x528b7b8f\n      eq\n      tag_7\n      jumpi\n      dup1\n      0x5f4623f1\n      eq\n      tag_8\n      jumpi\n      dup1\n      0x5faf2880\n      eq\n      tag_9\n      jumpi\n      dup1\n      0x7bff0a01\n      eq\n      tag_10\n      jumpi\n      dup1\n      0x8da5cb5b\n      eq\n      tag_11\n      jumpi\n      dup1\n      0xc39cbef1\n      eq\n      tag_12\n      jumpi\n      dup1\n      0xccf670f8\n      eq\n      tag_13\n      jumpi\n      dup1\n      0xe1fa7638\n      eq\n      tag_14\n      jumpi\n      dup1\n      0xf2fde38b\n      eq\n      tag_15\n      jumpi\n    tag_1:\n      0x0\n      dup1\n      revert\n        /* \"contracts/zombiehelper.sol\":437:597  function levelUp(uint _zombieId) external payable {\r... */\n    tag_2:\n      tag_16\n      0x4\n      dup1\n      dup1\n      calldataload\n      swap1\n      0x20\n      add\n      swap1\n      swap2\n      swap1\n      pop\n      pop\n      jump(tag_17)\n    tag_16:\n      stop\n        /* \"contracts/zombiefeeding.sol\":1616:1837  function feedOnKitty(uint _zombieId, uint _kittyId) public {\r... */\n    tag_3:\n      jumpi(tag_18, iszero(callvalue))\n      0x0\n      dup1\n      revert\n    tag_18:\n      tag_19\n      0x4\n      dup1\n      dup1\n      calldataload\n      swap1\n      0x20\n      add\n      swap1\n      swap2\n      swap1\n      dup1\n      calldataload\n      swap1\n      0x20\n      add\n      swap1\n      swap2\n      swap1\n      pop\n      pop\n      jump(tag_20)\n    tag_19:\n      stop\n        /* \"contracts/zombiefactory.sol\":571:594  Zombie[] public zombies */\n    tag_4:\n      jumpi(tag_21, iszero(callvalue))\n      0x0\n      dup1\n      revert\n    tag_21:\n      tag_22\n      0x4\n      dup1\n      dup1\n      calldataload\n      swap1\n      0x20\n      add\n      swap1\n      swap2\n      swap1\n      pop\n      pop\n      jump(tag_23)\n    tag_22:\n      mload(0x40)\n      dup1\n      dup1\n      0x20\n      add\n      dup8\n      dup2\n      mstore\n      0x20\n      add\n      dup7\n      0xffffffff\n      and\n      0xffffffff\n      and\n      dup2\n      mstore\n      0x20\n      add\n      dup6\n      0xffffffff\n      and\n      0xffffffff\n      and\n      dup2\n      mstore\n      0x20\n      add\n      dup5\n      0xffff\n      and\n      0xffff\n      and\n      dup2\n      mstore\n      0x20\n      add\n      dup4\n      0xffff\n      and\n      0xffff\n      and\n      dup2\n      mstore\n      0x20\n      add\n      dup3\n      dup2\n      sub\n      dup3\n      mstore\n      dup9\n      dup2\n      dup2\n      sload\n      0x1\n      dup2\n      0x1\n      and\n      iszero\n      0x100\n      mul\n      sub\n      and\n      0x2\n      swap1\n      div\n      dup2\n      mstore\n      0x20\n      add\n      swap2\n      pop\n      dup1\n      sload\n      0x1\n      dup2\n      0x1\n      and\n      iszero\n      0x100\n      mul\n      sub\n      and\n      0x2\n      swap1\n      div\n      dup1\n      iszero\n      tag_24\n      jumpi\n      dup1\n      0x1f\n      lt\n      tag_25\n      jumpi\n      0x100\n      dup1\n      dup4\n      sload\n      div\n      mul\n      dup4\n      mstore\n      swap2\n      0x20\n      add\n      swap2\n      jump(tag_24)\n    tag_25:\n      dup3\n      add\n      swap2\n      swap1\n      0x0\n      mstore\n      keccak256(0x0, 0x20)\n      swap1\n    tag_26:\n      dup2\n      sload\n      dup2\n      mstore\n      swap1\n      0x1\n      add\n      swap1\n      0x20\n      add\n      dup1\n      dup4\n      gt\n      tag_26\n      jumpi\n      dup3\n      swap1\n      sub\n      0x1f\n      and\n      dup3\n      add\n      swap2\n    tag_24:\n      pop\n      pop\n      swap8\n      pop\n      pop\n      pop\n      pop\n      pop\n      pop\n      pop\n      pop\n      mload(0x40)\n      dup1\n      swap2\n      sub\n      swap1\n      return\n        /* \"contracts/zombiehelper.sol\":262:342  function withdraw() external onlyOwner {\r... */\n    tag_5:\n      jumpi(tag_27, iszero(callvalue))\n      0x0\n      dup1\n      revert\n    tag_27:\n      tag_28\n      jump(tag_29)\n    tag_28:\n      stop\n        /* \"contracts/zombiehelper.sol\":924:1268  function getZombiesByOwner(address _owner) external view returns(uint[]) {\r... */\n    tag_6:\n      jumpi(tag_30, iszero(callvalue))\n      0x0\n      dup1\n      revert\n    tag_30:\n      tag_31\n      0x4\n      dup1\n      dup1\n      calldataload\n      0xffffffffffffffffffffffffffffffffffffffff\n      and\n      swap1\n      0x20\n      add\n      swap1\n      swap2\n      swap1\n      pop\n      pop\n      jump(tag_32)\n    tag_31:\n      mload(0x40)\n      dup1\n      dup1\n      0x20\n      add\n      dup3\n      dup2\n      sub\n      dup3\n      mstore\n      dup4\n      dup2\n      dup2\n      mload\n      dup2\n      mstore\n      0x20\n      add\n      swap2\n      pop\n      dup1\n      mload\n      swap1\n      0x20\n      add\n      swap1\n      0x20\n      mul\n      dup1\n      dup4\n      dup4\n        /* \"--CODEGEN--\":23:24   */\n      0x0\n        /* \"--CODEGEN--\":8:108   */\n    tag_33:\n        /* \"--CODEGEN--\":33:36   */\n      dup4\n        /* \"--CODEGEN--\":30:31   */\n      dup2\n        /* \"--CODEGEN--\":27:29   */\n      lt\n        /* \"--CODEGEN--\":8:108   */\n      iszero\n      tag_34\n      jumpi\n        /* \"--CODEGEN--\":99:100   */\n      dup1\n        /* \"--CODEGEN--\":94:97   */\n      dup3\n        /* \"--CODEGEN--\":90:93   */\n      add\n        /* \"--CODEGEN--\":84:89   */\n      mload\n        /* \"--CODEGEN--\":80:81   */\n      dup2\n        /* \"--CODEGEN--\":75:78   */\n      dup5\n        /* \"--CODEGEN--\":71:74   */\n      add\n        /* \"--CODEGEN--\":64:70   */\n      mstore\n        /* \"--CODEGEN--\":52:54   */\n      0x20\n        /* \"--CODEGEN--\":49:50   */\n      dup2\n        /* \"--CODEGEN--\":45:48   */\n      add\n        /* \"--CODEGEN--\":40:55   */\n      swap1\n      pop\n        /* \"--CODEGEN--\":8:108   */\n      jump(tag_33)\n    tag_34:\n        /* \"--CODEGEN--\":12:26   */\n      pop\n        /* \"--CODEGEN--\":3:112   */\n      pop\n      pop\n      pop\n      swap1\n      pop\n      add\n      swap3\n      pop\n      pop\n      pop\n      mload(0x40)\n      dup1\n      swap2\n      sub\n      swap1\n      return\n        /* \"contracts/zombiefactory.sol\":603:648  mapping(uint => address) public zombieToOwner */\n    tag_7:\n      jumpi(tag_36, iszero(callvalue))\n      0x0\n      dup1\n      revert\n    tag_36:\n      tag_37\n      0x4\n      dup1\n      dup1\n      calldataload\n      swap1\n      0x20\n      add\n      swap1\n      swap2\n      swap1\n      pop\n      pop\n      jump(tag_38)\n    tag_37:\n      mload(0x40)\n      dup1\n      dup3\n      0xffffffffffffffffffffffffffffffffffffffff\n      and\n      0xffffffffffffffffffffffffffffffffffffffff\n      and\n      dup2\n      mstore\n      0x20\n      add\n      swap2\n      pop\n      pop\n      mload(0x40)\n      dup1\n      swap2\n      sub\n      swap1\n      return\n        /* \"contracts/zombiefeeding.sol\":691:820  function setKittyContractAddress(address _address) external onlyOwner {\r... */\n    tag_8:\n      jumpi(tag_39, iszero(callvalue))\n      0x0\n      dup1\n      revert\n    tag_39:\n      tag_40\n      0x4\n      dup1\n      dup1\n      calldataload\n      0xffffffffffffffffffffffffffffffffffffffff\n      and\n      swap1\n      0x20\n      add\n      swap1\n      swap2\n      swap1\n      pop\n      pop\n      jump(tag_41)\n    tag_40:\n      stop\n        /* \"contracts/zombiehelper.sol\":766:918  function changeDna(uint _zombieId, uint _newDna) external aboveLevel(20, _zombieId) onlyOwnerOf(_zombieId) {\r... */\n    tag_9:\n      jumpi(tag_42, iszero(callvalue))\n      0x0\n      dup1\n      revert\n    tag_42:\n      tag_43\n      0x4\n      dup1\n      dup1\n      calldataload\n      swap1\n      0x20\n      add\n      swap1\n      swap2\n      swap1\n      dup1\n      calldataload\n      swap1\n      0x20\n      add\n      swap1\n      swap2\n      swap1\n      pop\n      pop\n      jump(tag_44)\n    tag_43:\n      stop\n        /* \"contracts/zombiefactory.sol\":1188:1433  function createRandomZombie(string _name) public {\r... */\n    tag_10:\n      jumpi(tag_45, iszero(callvalue))\n      0x0\n      dup1\n      revert\n    tag_45:\n      tag_46\n      0x4\n      dup1\n      dup1\n      calldataload\n      swap1\n      0x20\n      add\n      swap1\n      dup3\n      add\n      dup1\n      calldataload\n      swap1\n      0x20\n      add\n      swap1\n      dup1\n      dup1\n      0x1f\n      add\n      0x20\n      dup1\n      swap2\n      div\n      mul\n      0x20\n      add\n      mload(0x40)\n      swap1\n      dup2\n      add\n      0x40\n      mstore\n      dup1\n      swap4\n      swap3\n      swap2\n      swap1\n      dup2\n      dup2\n      mstore\n      0x20\n      add\n      dup4\n      dup4\n      dup1\n      dup3\n      dup5\n      calldatacopy\n      dup3\n      add\n      swap2\n      pop\n      pop\n      pop\n      pop\n      pop\n      pop\n      swap2\n      swap1\n      pop\n      pop\n      jump(tag_47)\n    tag_46:\n      stop\n        /* \"contracts/ownable.sol\":245:265  address public owner */\n    tag_11:\n      jumpi(tag_48, iszero(callvalue))\n      0x0\n      dup1\n      revert\n    tag_48:\n      tag_49\n      jump(tag_50)\n    tag_49:\n      mload(0x40)\n      dup1\n      dup3\n      0xffffffffffffffffffffffffffffffffffffffff\n      and\n      0xffffffffffffffffffffffffffffffffffffffff\n      and\n      dup2\n      mstore\n      0x20\n      add\n      swap2\n      pop\n      pop\n      mload(0x40)\n      dup1\n      swap2\n      sub\n      swap1\n      return\n        /* \"contracts/zombiehelper.sol\":603:760  function changeName(uint _zombieId, string _newName) external aboveLevel(2, _zombieId) onlyOwnerOf(_zombieId) {\r... */\n    tag_12:\n      jumpi(tag_51, iszero(callvalue))\n      0x0\n      dup1\n      revert\n    tag_51:\n      tag_52\n      0x4\n      dup1\n      dup1\n      calldataload\n      swap1\n      0x20\n      add\n      swap1\n      swap2\n      swap1\n      dup1\n      calldataload\n      swap1\n      0x20\n      add\n      swap1\n      dup3\n      add\n      dup1\n      calldataload\n      swap1\n      0x20\n      add\n      swap2\n      swap1\n      swap2\n      swap3\n      swap1\n      pop\n      pop\n      jump(tag_53)\n    tag_52:\n      stop\n        /* \"contracts/zombiehelper.sol\":348:431  function setLevelUpFee(uint _fee) external onlyOwner {\r... */\n    tag_13:\n      jumpi(tag_54, iszero(callvalue))\n      0x0\n      dup1\n      revert\n    tag_54:\n      tag_55\n      0x4\n      dup1\n      dup1\n      calldataload\n      swap1\n      0x20\n      add\n      swap1\n      swap2\n      swap1\n      pop\n      pop\n      jump(tag_56)\n    tag_55:\n      stop\n        /* \"contracts/zombieattack.sol\":358:1093  function attack(uint _zombieId,uint _targetId) external onlyOwnerOf(_zombieId) {\r... */\n    tag_14:\n      jumpi(tag_57, iszero(callvalue))\n      0x0\n      dup1\n      revert\n    tag_57:\n      tag_58\n      0x4\n      dup1\n      dup1\n      calldataload\n      swap1\n      0x20\n      add\n      swap1\n      swap2\n      swap1\n      dup1\n      calldataload\n      swap1\n      0x20\n      add\n      swap1\n      swap2\n      swap1\n      pop\n      pop\n      jump(tag_59)\n    tag_58:\n      stop\n        /* \"contracts/ownable.sol\":865:1038  function transferOwnership(address newOwner) public onlyOwner {\r... */\n    tag_15:\n      jumpi(tag_60, iszero(callvalue))\n      0x0\n      dup1\n      revert\n    tag_60:\n      tag_61\n      0x4\n      dup1\n      dup1\n      calldataload\n      0xffffffffffffffffffffffffffffffffffffffff\n      and\n      swap1\n      0x20\n      add\n      swap1\n      swap2\n      swap1\n      pop\n      pop\n      jump(tag_62)\n    tag_61:\n      stop\n        /* \"contracts/zombiehelper.sol\":437:597  function levelUp(uint _zombieId) external payable {\r... */\n    tag_17:\n        /* \"contracts/zombiehelper.sol\":515:525  levelUpFee */\n      sload(0x8)\n        /* \"contracts/zombiehelper.sol\":502:511  msg.value */\n      callvalue\n        /* \"contracts/zombiehelper.sol\":502:525  msg.value == levelUpFee */\n      eq\n        /* \"contracts/zombiehelper.sol\":494:526  require(msg.value == levelUpFee) */\n      iszero\n      iszero\n      tag_64\n      jumpi\n      0x0\n      dup1\n      revert\n    tag_64:\n        /* \"contracts/zombiehelper.sol\":560:591  zombies[_zombieId].level.add(1) */\n      tag_65\n        /* \"contracts/zombiehelper.sol\":589:590  1 */\n      0x1\n        /* \"contracts/zombiehelper.sol\":560:567  zombies */\n      0x4\n        /* \"contracts/zombiehelper.sol\":568:577  _zombieId */\n      dup4\n        /* \"contracts/zombiehelper.sol\":560:578  zombies[_zombieId] */\n      dup2\n      sload\n      dup2\n      lt\n      iszero\n      iszero\n      tag_66\n      jumpi\n      invalid\n    tag_66:\n      swap1\n      0x0\n      mstore\n      keccak256(0x0, 0x20)\n      swap1\n      0x3\n      mul\n      add\n        /* \"contracts/zombiehelper.sol\":560:584  zombies[_zombieId].level */\n      0x2\n      add\n      0x0\n      swap1\n      sload\n      swap1\n      0x100\n      exp\n      swap1\n      div\n      0xffffffff\n      and\n        /* \"contracts/zombiehelper.sol\":560:588  zombies[_zombieId].level.add */\n      0xffffffff\n      and\n      tag_68\n      swap1\n        /* \"contracts/zombiehelper.sol\":560:591  zombies[_zombieId].level.add(1) */\n      swap2\n      swap1\n      0xffffffff\n      and\n      jump\t// in\n    tag_65:\n        /* \"contracts/zombiehelper.sol\":533:540  zombies */\n      0x4\n        /* \"contracts/zombiehelper.sol\":541:550  _zombieId */\n      dup3\n        /* \"contracts/zombiehelper.sol\":533:551  zombies[_zombieId] */\n      dup2\n      sload\n      dup2\n      lt\n      iszero\n      iszero\n      tag_69\n      jumpi\n      invalid\n    tag_69:\n      swap1\n      0x0\n      mstore\n      keccak256(0x0, 0x20)\n      swap1\n      0x3\n      mul\n      add\n        /* \"contracts/zombiehelper.sol\":533:557  zombies[_zombieId].level */\n      0x2\n      add\n      0x0\n        /* \"contracts/zombiehelper.sol\":533:591  zombies[_zombieId].level = zombies[_zombieId].level.add(1) */\n      0x100\n      exp\n      dup2\n      sload\n      dup2\n      0xffffffff\n      mul\n      not\n      and\n      swap1\n      dup4\n      0xffffffff\n      and\n      mul\n      or\n      swap1\n      sstore\n      pop\n        /* \"contracts/zombiehelper.sol\":437:597  function levelUp(uint _zombieId) external payable {\r... */\n      pop\n      jump\t// out\n        /* \"contracts/zombiefeeding.sol\":1616:1837  function feedOnKitty(uint _zombieId, uint _kittyId) public {\r... */\n    tag_20:\n        /* \"contracts/zombiefeeding.sol\":1686:1699  uint kittyDna */\n      0x0\n        /* \"contracts/zombiefeeding.sol\":1741:1754  kittyContract */\n      0x7\n      0x0\n      swap1\n      sload\n      swap1\n      0x100\n      exp\n      swap1\n      div\n      0xffffffffffffffffffffffffffffffffffffffff\n      and\n        /* \"contracts/zombiefeeding.sol\":1741:1763  kittyContract.getKitty */\n      0xffffffffffffffffffffffffffffffffffffffff\n      and\n      0xe98b7f4d\n        /* \"contracts/zombiefeeding.sol\":1764:1772  _kittyId */\n      dup4\n        /* \"contracts/zombiefeeding.sol\":1741:1773  kittyContract.getKitty(_kittyId) */\n      mstore(add(0x140, mload(0x40)), 0x0)\n      mload(0x40)\n      dup3\n      0xffffffff\n      and\n      0x100000000000000000000000000000000000000000000000000000000\n      mul\n      dup2\n      mstore\n      0x4\n      add\n      dup1\n      dup3\n      dup2\n      mstore\n      0x20\n      add\n      swap2\n      pop\n      pop\n      0x140\n      mload(0x40)\n      dup1\n      dup4\n      sub\n      dup2\n      0x0\n      dup8\n      dup1\n      extcodesize\n      iszero\n      iszero\n      tag_72\n      jumpi\n      0x0\n      dup1\n      revert\n    tag_72:\n      sub(gas, 0x2c6)\n      call\n      iszero\n      iszero\n      tag_73\n      jumpi\n      0x0\n      dup1\n      revert\n    tag_73:\n      pop\n      pop\n      pop\n      mload(0x40)\n      dup1\n      mload\n      swap1\n      0x20\n      add\n      dup1\n      mload\n      swap1\n      0x20\n      add\n      dup1\n      mload\n      swap1\n      0x20\n      add\n      dup1\n      mload\n      swap1\n      0x20\n      add\n      dup1\n      mload\n      swap1\n      0x20\n      add\n      dup1\n      mload\n      swap1\n      0x20\n      add\n      dup1\n      mload\n      swap1\n      0x20\n      add\n      dup1\n      mload\n      swap1\n      0x20\n      add\n      dup1\n      mload\n      swap1\n      0x20\n      add\n      dup1\n      mload\n      swap1\n      pop\n        /* \"contracts/zombiefeeding.sol\":1710:1773  (, , , , , , , , , kittyDna) = kittyContract.getKitty(_kittyId) */\n      swap1\n      swap2\n      swap3\n      swap4\n      swap5\n      swap6\n      swap7\n      swap8\n      swap9\n      pop\n      swap1\n      swap2\n      swap3\n      swap4\n      swap5\n      swap6\n      swap7\n      swap8\n      pop\n      swap1\n      swap2\n      swap3\n      swap4\n      swap5\n      swap6\n      swap7\n      pop\n      swap1\n      swap2\n      swap3\n      swap4\n      swap5\n      swap6\n      pop\n      swap1\n      swap2\n      swap3\n      swap4\n      swap5\n      pop\n      swap1\n      swap2\n      swap3\n      swap4\n      pop\n      swap1\n      swap2\n      swap3\n      pop\n      swap1\n      swap2\n      pop\n      swap1\n      pop\n      dup1\n      swap2\n      pop\n      pop\n        /* \"contracts/zombiefeeding.sol\":1784:1829  feedAndMultiply(_zombieId, kittyDna, \"kitty\") */\n      tag_74\n        /* \"contracts/zombiefeeding.sol\":1800:1809  _zombieId */\n      dup4\n        /* \"contracts/zombiefeeding.sol\":1811:1819  kittyDna */\n      dup3\n        /* \"contracts/zombiefeeding.sol\":1784:1829  feedAndMultiply(_zombieId, kittyDna, \"kitty\") */\n      0x40\n      dup1\n      mload\n      swap1\n      dup2\n      add\n      0x40\n      mstore\n      dup1\n      0x5\n      dup2\n      mstore\n      0x20\n      add\n      0x6b69747479000000000000000000000000000000000000000000000000000000\n      dup2\n      mstore\n      pop\n        /* \"contracts/zombiefeeding.sol\":1784:1799  feedAndMultiply */\n      tag_75\n        /* \"contracts/zombiefeeding.sol\":1784:1829  feedAndMultiply(_zombieId, kittyDna, \"kitty\") */\n      jump\t// in\n    tag_74:\n        /* \"contracts/zombiefeeding.sol\":1616:1837  function feedOnKitty(uint _zombieId, uint _kittyId) public {\r... */\n      pop\n      pop\n      pop\n      jump\t// out\n        /* \"contracts/zombiefactory.sol\":571:594  Zombie[] public zombies */\n    tag_23:\n      0x4\n      dup2\n      dup2\n      sload\n      dup2\n      lt\n      iszero\n      iszero\n      tag_76\n      jumpi\n      invalid\n    tag_76:\n      swap1\n      0x0\n      mstore\n      keccak256(0x0, 0x20)\n      swap1\n      0x3\n      mul\n      add\n      0x0\n      swap2\n      pop\n      swap1\n      pop\n      dup1\n      0x0\n      add\n      swap1\n      dup1\n      0x1\n      add\n      sload\n      swap1\n      dup1\n      0x2\n      add\n      0x0\n      swap1\n      sload\n      swap1\n      0x100\n      exp\n      swap1\n      div\n      0xffffffff\n      and\n      swap1\n      dup1\n      0x2\n      add\n      0x4\n      swap1\n      sload\n      swap1\n      0x100\n      exp\n      swap1\n      div\n      0xffffffff\n      and\n      swap1\n      dup1\n      0x2\n      add\n      0x8\n      swap1\n      sload\n      swap1\n      0x100\n      exp\n      swap1\n      div\n      0xffff\n      and\n      swap1\n      dup1\n      0x2\n      add\n      0xa\n      swap1\n      sload\n      swap1\n      0x100\n      exp\n      swap1\n      div\n      0xffff\n      and\n      swap1\n      pop\n      dup7\n      jump\t// out\n        /* \"contracts/zombiehelper.sol\":262:342  function withdraw() external onlyOwner {\r... */\n    tag_29:\n        /* \"contracts/ownable.sol\":676:681  owner */\n      0x0\n      dup1\n      swap1\n      sload\n      swap1\n      0x100\n      exp\n      swap1\n      div\n      0xffffffffffffffffffffffffffffffffffffffff\n      and\n        /* \"contracts/ownable.sol\":662:681  msg.sender == owner */\n      0xffffffffffffffffffffffffffffffffffffffff\n      and\n        /* \"contracts/ownable.sol\":662:672  msg.sender */\n      caller\n        /* \"contracts/ownable.sol\":662:681  msg.sender == owner */\n      0xffffffffffffffffffffffffffffffffffffffff\n      and\n      eq\n        /* \"contracts/ownable.sol\":654:682  require(msg.sender == owner) */\n      iszero\n      iszero\n      tag_79\n      jumpi\n      0x0\n      dup1\n      revert\n    tag_79:\n        /* \"contracts/zombiehelper.sol\":308:313  owner */\n      0x0\n      dup1\n      swap1\n      sload\n      swap1\n      0x100\n      exp\n      swap1\n      div\n      0xffffffffffffffffffffffffffffffffffffffff\n      and\n        /* \"contracts/zombiehelper.sol\":308:322  owner.transfer */\n      0xffffffffffffffffffffffffffffffffffffffff\n      and\n        /* \"contracts/zombiehelper.sol\":308:336  owner.transfer(this.balance) */\n      0x8fc\n        /* \"contracts/zombiehelper.sol\":323:327  this */\n      address\n        /* \"contracts/zombiehelper.sol\":323:335  this.balance */\n      0xffffffffffffffffffffffffffffffffffffffff\n      and\n      balance\n        /* \"contracts/zombiehelper.sol\":308:336  owner.transfer(this.balance) */\n      swap1\n      dup2\n      iszero\n      mul\n      swap1\n      mload(0x40)\n      0x0\n      mload(0x40)\n      dup1\n      dup4\n      sub\n      dup2\n      dup6\n      dup9\n      dup9\n      call\n      swap4\n      pop\n      pop\n      pop\n      pop\n      iszero\n      iszero\n      tag_81\n      jumpi\n      0x0\n      dup1\n      revert\n    tag_81:\n        /* \"contracts/zombiehelper.sol\":262:342  function withdraw() external onlyOwner {\r... */\n      jump\t// out\n        /* \"contracts/zombiehelper.sol\":924:1268  function getZombiesByOwner(address _owner) external view returns(uint[]) {\r... */\n    tag_32:\n        /* \"contracts/zombiehelper.sol\":989:995  uint[] */\n      tag_82\n      jump\t// in(tag_83)\n    tag_82:\n        /* \"contracts/zombiehelper.sol\":1004:1024  uint[] memory result */\n      tag_84\n      jump\t// in(tag_83)\n    tag_84:\n        /* \"contracts/zombiehelper.sol\":1070:1082  uint counter */\n      0x0\n        /* \"contracts/zombiehelper.sol\":1098:1104  uint i */\n      dup1\n        /* \"contracts/zombiehelper.sol\":1038:1054  ownerZombieCount */\n      0x6\n        /* \"contracts/zombiehelper.sol\":1038:1062  ownerZombieCount[_owner] */\n      0x0\n        /* \"contracts/zombiehelper.sol\":1055:1061  _owner */\n      dup7\n        /* \"contracts/zombiehelper.sol\":1038:1062  ownerZombieCount[_owner] */\n      0xffffffffffffffffffffffffffffffffffffffff\n      and\n      0xffffffffffffffffffffffffffffffffffffffff\n      and\n      dup2\n      mstore\n      0x20\n      add\n      swap1\n      dup2\n      mstore\n      0x20\n      add\n      0x0\n      keccak256\n      sload\n        /* \"contracts/zombiehelper.sol\":1027:1063  new uint[](ownerZombieCount[_owner]) */\n      mload(0x40)\n      dup1\n      msize\n      lt\n      tag_86\n      jumpi\n      pop\n      msize\n    tag_86:\n      swap1\n      dup1\n      dup3\n      mstore\n      dup1\n      0x20\n      mul\n      0x20\n      add\n      dup3\n      add\n      0x40\n      mstore\n      pop\n        /* \"contracts/zombiehelper.sol\":1004:1063  uint[] memory result = new uint[](ownerZombieCount[_owner]) */\n      swap3\n      pop\n        /* \"contracts/zombiehelper.sol\":1085:1086  0 */\n      0x0\n        /* \"contracts/zombiehelper.sol\":1070:1086  uint counter = 0 */\n      swap2\n      pop\n        /* \"contracts/zombiehelper.sol\":1107:1108  0 */\n      0x0\n        /* \"contracts/zombiehelper.sol\":1098:1108  uint i = 0 */\n      swap1\n      pop\n        /* \"contracts/zombiehelper.sol\":1093:1243  for (uint i = 0; i < zombies.length; i++) {\r... */\n    tag_88:\n        /* \"contracts/zombiehelper.sol\":1114:1121  zombies */\n      0x4\n        /* \"contracts/zombiehelper.sol\":1114:1128  zombies.length */\n      dup1\n      sload\n      swap1\n      pop\n        /* \"contracts/zombiehelper.sol\":1110:1111  i */\n      dup2\n        /* \"contracts/zombiehelper.sol\":1110:1128  i < zombies.length */\n      lt\n        /* \"contracts/zombiehelper.sol\":1093:1243  for (uint i = 0; i < zombies.length; i++) {\r... */\n      iszero\n      tag_89\n      jumpi\n        /* \"contracts/zombiehelper.sol\":1168:1174  _owner */\n      dup5\n        /* \"contracts/zombiehelper.sol\":1148:1174  zombieToOwner[i] == _owner */\n      0xffffffffffffffffffffffffffffffffffffffff\n      and\n        /* \"contracts/zombiehelper.sol\":1148:1161  zombieToOwner */\n      0x5\n        /* \"contracts/zombiehelper.sol\":1148:1164  zombieToOwner[i] */\n      0x0\n        /* \"contracts/zombiehelper.sol\":1162:1163  i */\n      dup4\n        /* \"contracts/zombiehelper.sol\":1148:1164  zombieToOwner[i] */\n      dup2\n      mstore\n      0x20\n      add\n      swap1\n      dup2\n      mstore\n      0x20\n      add\n      0x0\n      keccak256\n      0x0\n      swap1\n      sload\n      swap1\n      0x100\n      exp\n      swap1\n      div\n      0xffffffffffffffffffffffffffffffffffffffff\n      and\n        /* \"contracts/zombiehelper.sol\":1148:1174  zombieToOwner[i] == _owner */\n      0xffffffffffffffffffffffffffffffffffffffff\n      and\n      eq\n        /* \"contracts/zombiehelper.sol\":1144:1236  if (zombieToOwner[i] == _owner) {\r... */\n      iszero\n      tag_91\n      jumpi\n        /* \"contracts/zombiehelper.sol\":1205:1206  i */\n      dup1\n        /* \"contracts/zombiehelper.sol\":1187:1193  result */\n      dup4\n        /* \"contracts/zombiehelper.sol\":1194:1201  counter */\n      dup4\n        /* \"contracts/zombiehelper.sol\":1187:1202  result[counter] */\n      dup2\n      mload\n      dup2\n      lt\n      iszero\n      iszero\n      tag_92\n      jumpi\n      invalid\n    tag_92:\n      swap1\n      0x20\n      add\n      swap1\n      0x20\n      mul\n      add\n        /* \"contracts/zombiehelper.sol\":1187:1206  result[counter] = i */\n      dup2\n      dup2\n      mstore\n      pop\n      pop\n        /* \"contracts/zombiehelper.sol\":1217:1226  counter++ */\n      dup2\n      dup1\n      0x1\n      add\n      swap3\n      pop\n      pop\n        /* \"contracts/zombiehelper.sol\":1144:1236  if (zombieToOwner[i] == _owner) {\r... */\n    tag_91:\n        /* \"contracts/zombiehelper.sol\":1130:1133  i++ */\n      dup1\n      dup1\n      0x1\n      add\n      swap2\n      pop\n      pop\n        /* \"contracts/zombiehelper.sol\":1093:1243  for (uint i = 0; i < zombies.length; i++) {\r... */\n      jump(tag_88)\n    tag_89:\n        /* \"contracts/zombiehelper.sol\":1256:1262  result */\n      dup3\n        /* \"contracts/zombiehelper.sol\":1249:1262  return result */\n      swap4\n      pop\n        /* \"contracts/zombiehelper.sol\":924:1268  function getZombiesByOwner(address _owner) external view returns(uint[]) {\r... */\n      pop\n      pop\n      pop\n      swap2\n      swap1\n      pop\n      jump\t// out\n        /* \"contracts/zombiefactory.sol\":603:648  mapping(uint => address) public zombieToOwner */\n    tag_38:\n      mstore(0x20, 0x5)\n      dup1\n      0x0\n      mstore\n      keccak256(0x0, 0x40)\n      0x0\n      swap2\n      pop\n      sload\n      swap1\n      0x100\n      exp\n      swap1\n      div\n      0xffffffffffffffffffffffffffffffffffffffff\n      and\n      dup2\n      jump\t// out\n        /* \"contracts/zombiefeeding.sol\":691:820  function setKittyContractAddress(address _address) external onlyOwner {\r... */\n    tag_41:\n        /* \"contracts/ownable.sol\":676:681  owner */\n      0x0\n      dup1\n      swap1\n      sload\n      swap1\n      0x100\n      exp\n      swap1\n      div\n      0xffffffffffffffffffffffffffffffffffffffff\n      and\n        /* \"contracts/ownable.sol\":662:681  msg.sender == owner */\n      0xffffffffffffffffffffffffffffffffffffffff\n      and\n        /* \"contracts/ownable.sol\":662:672  msg.sender */\n      caller\n        /* \"contracts/ownable.sol\":662:681  msg.sender == owner */\n      0xffffffffffffffffffffffffffffffffffffffff\n      and\n      eq\n        /* \"contracts/ownable.sol\":654:682  require(msg.sender == owner) */\n      iszero\n      iszero\n      tag_94\n      jumpi\n      0x0\n      dup1\n      revert\n    tag_94:\n        /* \"contracts/zombiefeeding.sol\":803:811  _address */\n      dup1\n        /* \"contracts/zombiefeeding.sol\":772:785  kittyContract */\n      0x7\n      0x0\n        /* \"contracts/zombiefeeding.sol\":772:812  kittyContract = KittyInterface(_address) */\n      0x100\n      exp\n      dup2\n      sload\n      dup2\n      0xffffffffffffffffffffffffffffffffffffffff\n      mul\n      not\n      and\n      swap1\n      dup4\n      0xffffffffffffffffffffffffffffffffffffffff\n      and\n      mul\n      or\n      swap1\n      sstore\n      pop\n        /* \"contracts/zombiefeeding.sol\":691:820  function setKittyContractAddress(address _address) external onlyOwner {\r... */\n      pop\n      jump\t// out\n        /* \"contracts/zombiehelper.sol\":766:918  function changeDna(uint _zombieId, uint _newDna) external aboveLevel(20, _zombieId) onlyOwnerOf(_zombieId) {\r... */\n    tag_44:\n        /* \"contracts/zombiehelper.sol\":835:837  20 */\n      0x14\n        /* \"contracts/zombiehelper.sol\":839:848  _zombieId */\n      dup3\n        /* \"contracts/zombiehelper.sol\":235:241  _level */\n      dup2\n        /* \"contracts/zombiehelper.sol\":207:214  zombies */\n      0x4\n        /* \"contracts/zombiehelper.sol\":215:224  _zombieId */\n      dup3\n        /* \"contracts/zombiehelper.sol\":207:225  zombies[_zombieId] */\n      dup2\n      sload\n      dup2\n      lt\n      iszero\n      iszero\n      tag_97\n      jumpi\n      invalid\n    tag_97:\n      swap1\n      0x0\n      mstore\n      keccak256(0x0, 0x20)\n      swap1\n      0x3\n      mul\n      add\n        /* \"contracts/zombiehelper.sol\":207:231  zombies[_zombieId].level */\n      0x2\n      add\n      0x0\n      swap1\n      sload\n      swap1\n      0x100\n      exp\n      swap1\n      div\n      0xffffffff\n      and\n        /* \"contracts/zombiehelper.sol\":207:241  zombies[_zombieId].level >= _level */\n      0xffffffff\n      and\n      lt\n      iszero\n        /* \"contracts/zombiehelper.sol\":199:242  require(zombies[_zombieId].level >= _level) */\n      iszero\n      iszero\n      tag_99\n      jumpi\n      0x0\n      dup1\n      revert\n    tag_99:\n        /* \"contracts/zombiehelper.sol\":862:871  _zombieId */\n      dup4\n        /* \"contracts/zombiefeeding.sol\":638:651  zombieToOwner */\n      0x5\n        /* \"contracts/zombiefeeding.sol\":638:662  zombieToOwner[_zombieId] */\n      0x0\n        /* \"contracts/zombiefeeding.sol\":652:661  _zombieId */\n      dup3\n        /* \"contracts/zombiefeeding.sol\":638:662  zombieToOwner[_zombieId] */\n      dup2\n      mstore\n      0x20\n      add\n      swap1\n      dup2\n      mstore\n      0x20\n      add\n      0x0\n      keccak256\n      0x0\n      swap1\n      sload\n      swap1\n      0x100\n      exp\n      swap1\n      div\n      0xffffffffffffffffffffffffffffffffffffffff\n      and\n        /* \"contracts/zombiefeeding.sol\":624:662  msg.sender == zombieToOwner[_zombieId] */\n      0xffffffffffffffffffffffffffffffffffffffff\n      and\n        /* \"contracts/zombiefeeding.sol\":624:634  msg.sender */\n      caller\n        /* \"contracts/zombiefeeding.sol\":624:662  msg.sender == zombieToOwner[_zombieId] */\n      0xffffffffffffffffffffffffffffffffffffffff\n      and\n      eq\n        /* \"contracts/zombiefeeding.sol\":616:663  require(msg.sender == zombieToOwner[_zombieId]) */\n      iszero\n      iszero\n      tag_101\n      jumpi\n      0x0\n      dup1\n      revert\n    tag_101:\n        /* \"contracts/zombiehelper.sol\":905:912  _newDna */\n      dup4\n        /* \"contracts/zombiehelper.sol\":880:887  zombies */\n      0x4\n        /* \"contracts/zombiehelper.sol\":888:897  _zombieId */\n      dup7\n        /* \"contracts/zombiehelper.sol\":880:898  zombies[_zombieId] */\n      dup2\n      sload\n      dup2\n      lt\n      iszero\n      iszero\n      tag_103\n      jumpi\n      invalid\n    tag_103:\n      swap1\n      0x0\n      mstore\n      keccak256(0x0, 0x20)\n      swap1\n      0x3\n      mul\n      add\n        /* \"contracts/zombiehelper.sol\":880:902  zombies[_zombieId].dna */\n      0x1\n      add\n        /* \"contracts/zombiehelper.sol\":880:912  zombies[_zombieId].dna = _newDna */\n      dup2\n      swap1\n      sstore\n      pop\n        /* \"contracts/zombiehelper.sol\":249:250  _ */\n      pop\n        /* \"contracts/zombiehelper.sol\":766:918  function changeDna(uint _zombieId, uint _newDna) external aboveLevel(20, _zombieId) onlyOwnerOf(_zombieId) {\r... */\n      pop\n      pop\n      pop\n      pop\n      jump\t// out\n        /* \"contracts/zombiefactory.sol\":1188:1433  function createRandomZombie(string _name) public {\r... */\n    tag_47:\n        /* \"contracts/zombiefactory.sol\":1301:1313  uint randDna */\n      0x0\n        /* \"contracts/zombiefactory.sol\":1288:1289  0 */\n      dup1\n        /* \"contracts/zombiefactory.sol\":1256:1272  ownerZombieCount */\n      0x6\n        /* \"contracts/zombiefactory.sol\":1256:1284  ownerZombieCount[msg.sender] */\n      0x0\n        /* \"contracts/zombiefactory.sol\":1273:1283  msg.sender */\n      caller\n        /* \"contracts/zombiefactory.sol\":1256:1284  ownerZombieCount[msg.sender] */\n      0xffffffffffffffffffffffffffffffffffffffff\n      and\n      0xffffffffffffffffffffffffffffffffffffffff\n      and\n      dup2\n      mstore\n      0x20\n      add\n      swap1\n      dup2\n      mstore\n      0x20\n      add\n      0x0\n      keccak256\n      sload\n        /* \"contracts/zombiefactory.sol\":1256:1289  ownerZombieCount[msg.sender] == 0 */\n      eq\n        /* \"contracts/zombiefactory.sol\":1248:1290  require(ownerZombieCount[msg.sender] == 0) */\n      iszero\n      iszero\n      tag_106\n      jumpi\n      0x0\n      dup1\n      revert\n    tag_106:\n        /* \"contracts/zombiefactory.sol\":1316:1341  _generateRandomDna(_name) */\n      tag_107\n        /* \"contracts/zombiefactory.sol\":1335:1340  _name */\n      dup3\n        /* \"contracts/zombiefactory.sol\":1316:1334  _generateRandomDna */\n      tag_108\n        /* \"contracts/zombiefactory.sol\":1316:1341  _generateRandomDna(_name) */\n      jump\t// in\n    tag_107:\n        /* \"contracts/zombiefactory.sol\":1301:1341  uint randDna = _generateRandomDna(_name) */\n      swap1\n      pop\n        /* \"contracts/zombiefactory.sol\":1382:1385  100 */\n      0x64\n        /* \"contracts/zombiefactory.sol\":1372:1379  randDna */\n      dup2\n        /* \"contracts/zombiefactory.sol\":1372:1385  randDna % 100 */\n      dup2\n      iszero\n      iszero\n      tag_109\n      jumpi\n      invalid\n    tag_109:\n      mod\n        /* \"contracts/zombiefactory.sol\":1362:1369  randDna */\n      dup2\n        /* \"contracts/zombiefactory.sol\":1362:1385  randDna - randDna % 100 */\n      sub\n        /* \"contracts/zombiefactory.sol\":1352:1385  randDna = randDna - randDna % 100 */\n      swap1\n      pop\n        /* \"contracts/zombiefactory.sol\":1396:1425  _createZombie(_name, randDna) */\n      tag_110\n        /* \"contracts/zombiefactory.sol\":1410:1415  _name */\n      dup3\n        /* \"contracts/zombiefactory.sol\":1417:1424  randDna */\n      dup3\n        /* \"contracts/zombiefactory.sol\":1396:1409  _createZombie */\n      tag_111\n        /* \"contracts/zombiefactory.sol\":1396:1425  _createZombie(_name, randDna) */\n      jump\t// in\n    tag_110:\n        /* \"contracts/zombiefactory.sol\":1188:1433  function createRandomZombie(string _name) public {\r... */\n      pop\n      pop\n      jump\t// out\n        /* \"contracts/ownable.sol\":245:265  address public owner */\n    tag_50:\n      0x0\n      dup1\n      swap1\n      sload\n      swap1\n      0x100\n      exp\n      swap1\n      div\n      0xffffffffffffffffffffffffffffffffffffffff\n      and\n      dup2\n      jump\t// out\n        /* \"contracts/zombiehelper.sol\":603:760  function changeName(uint _zombieId, string _newName) external aboveLevel(2, _zombieId) onlyOwnerOf(_zombieId) {\r... */\n    tag_53:\n        /* \"contracts/zombiehelper.sol\":676:677  2 */\n      0x2\n        /* \"contracts/zombiehelper.sol\":679:688  _zombieId */\n      dup4\n        /* \"contracts/zombiehelper.sol\":235:241  _level */\n      dup2\n        /* \"contracts/zombiehelper.sol\":207:214  zombies */\n      0x4\n        /* \"contracts/zombiehelper.sol\":215:224  _zombieId */\n      dup3\n        /* \"contracts/zombiehelper.sol\":207:225  zombies[_zombieId] */\n      dup2\n      sload\n      dup2\n      lt\n      iszero\n      iszero\n      tag_113\n      jumpi\n      invalid\n    tag_113:\n      swap1\n      0x0\n      mstore\n      keccak256(0x0, 0x20)\n      swap1\n      0x3\n      mul\n      add\n        /* \"contracts/zombiehelper.sol\":207:231  zombies[_zombieId].level */\n      0x2\n      add\n      0x0\n      swap1\n      sload\n      swap1\n      0x100\n      exp\n      swap1\n      div\n      0xffffffff\n      and\n        /* \"contracts/zombiehelper.sol\":207:241  zombies[_zombieId].level >= _level */\n      0xffffffff\n      and\n      lt\n      iszero\n        /* \"contracts/zombiehelper.sol\":199:242  require(zombies[_zombieId].level >= _level) */\n      iszero\n      iszero\n      tag_115\n      jumpi\n      0x0\n      dup1\n      revert\n    tag_115:\n        /* \"contracts/zombiehelper.sol\":702:711  _zombieId */\n      dup5\n        /* \"contracts/zombiefeeding.sol\":638:651  zombieToOwner */\n      0x5\n        /* \"contracts/zombiefeeding.sol\":638:662  zombieToOwner[_zombieId] */\n      0x0\n        /* \"contracts/zombiefeeding.sol\":652:661  _zombieId */\n      dup3\n        /* \"contracts/zombiefeeding.sol\":638:662  zombieToOwner[_zombieId] */\n      dup2\n      mstore\n      0x20\n      add\n      swap1\n      dup2\n      mstore\n      0x20\n      add\n      0x0\n      keccak256\n      0x0\n      swap1\n      sload\n      swap1\n      0x100\n      exp\n      swap1\n      div\n      0xffffffffffffffffffffffffffffffffffffffff\n      and\n        /* \"contracts/zombiefeeding.sol\":624:662  msg.sender == zombieToOwner[_zombieId] */\n      0xffffffffffffffffffffffffffffffffffffffff\n      and\n        /* \"contracts/zombiefeeding.sol\":624:634  msg.sender */\n      caller\n        /* \"contracts/zombiefeeding.sol\":624:662  msg.sender == zombieToOwner[_zombieId] */\n      0xffffffffffffffffffffffffffffffffffffffff\n      and\n      eq\n        /* \"contracts/zombiefeeding.sol\":616:663  require(msg.sender == zombieToOwner[_zombieId]) */\n      iszero\n      iszero\n      tag_117\n      jumpi\n      0x0\n      dup1\n      revert\n    tag_117:\n        /* \"contracts/zombiehelper.sol\":746:754  _newName */\n      dup5\n      dup5\n        /* \"contracts/zombiehelper.sol\":720:727  zombies */\n      0x4\n        /* \"contracts/zombiehelper.sol\":728:737  _zombieId */\n      dup9\n        /* \"contracts/zombiehelper.sol\":720:738  zombies[_zombieId] */\n      dup2\n      sload\n      dup2\n      lt\n      iszero\n      iszero\n      tag_119\n      jumpi\n      invalid\n    tag_119:\n      swap1\n      0x0\n      mstore\n      keccak256(0x0, 0x20)\n      swap1\n      0x3\n      mul\n      add\n        /* \"contracts/zombiehelper.sol\":720:743  zombies[_zombieId].name */\n      0x0\n      add\n        /* \"contracts/zombiehelper.sol\":720:754  zombies[_zombieId].name = _newName */\n      swap2\n      swap1\n      tag_121\n      swap3\n      swap2\n      swap1\n      jump\t// in(tag_122)\n    tag_121:\n      pop\n        /* \"contracts/zombiehelper.sol\":249:250  _ */\n      pop\n        /* \"contracts/zombiehelper.sol\":603:760  function changeName(uint _zombieId, string _newName) external aboveLevel(2, _zombieId) onlyOwnerOf(_zombieId) {\r... */\n      pop\n      pop\n      pop\n      pop\n      pop\n      jump\t// out\n        /* \"contracts/zombiehelper.sol\":348:431  function setLevelUpFee(uint _fee) external onlyOwner {\r... */\n    tag_56:\n        /* \"contracts/ownable.sol\":676:681  owner */\n      0x0\n      dup1\n      swap1\n      sload\n      swap1\n      0x100\n      exp\n      swap1\n      div\n      0xffffffffffffffffffffffffffffffffffffffff\n      and\n        /* \"contracts/ownable.sol\":662:681  msg.sender == owner */\n      0xffffffffffffffffffffffffffffffffffffffff\n      and\n        /* \"contracts/ownable.sol\":662:672  msg.sender */\n      caller\n        /* \"contracts/ownable.sol\":662:681  msg.sender == owner */\n      0xffffffffffffffffffffffffffffffffffffffff\n      and\n      eq\n        /* \"contracts/ownable.sol\":654:682  require(msg.sender == owner) */\n      iszero\n      iszero\n      tag_124\n      jumpi\n      0x0\n      dup1\n      revert\n    tag_124:\n        /* \"contracts/zombiehelper.sol\":421:425  _fee */\n      dup1\n        /* \"contracts/zombiehelper.sol\":408:418  levelUpFee */\n      0x8\n        /* \"contracts/zombiehelper.sol\":408:425  levelUpFee = _fee */\n      dup2\n      swap1\n      sstore\n      pop\n        /* \"contracts/zombiehelper.sol\":348:431  function setLevelUpFee(uint _fee) external onlyOwner {\r... */\n      pop\n      jump\t// out\n        /* \"contracts/zombieattack.sol\":358:1093  function attack(uint _zombieId,uint _targetId) external onlyOwnerOf(_zombieId) {\r... */\n    tag_59:\n        /* \"contracts/zombieattack.sol\":448:471  Zombie storage myZombie */\n      0x0\n        /* \"contracts/zombieattack.sol\":503:529  Zombie storage enemyZombie */\n      dup1\n        /* \"contracts/zombieattack.sol\":561:570  uint rand */\n      0x0\n        /* \"contracts/zombieattack.sol\":426:435  _zombieId */\n      dup5\n        /* \"contracts/zombiefeeding.sol\":638:651  zombieToOwner */\n      0x5\n        /* \"contracts/zombiefeeding.sol\":638:662  zombieToOwner[_zombieId] */\n      0x0\n        /* \"contracts/zombiefeeding.sol\":652:661  _zombieId */\n      dup3\n        /* \"contracts/zombiefeeding.sol\":638:662  zombieToOwner[_zombieId] */\n      dup2\n      mstore\n      0x20\n      add\n      swap1\n      dup2\n      mstore\n      0x20\n      add\n      0x0\n      keccak256\n      0x0\n      swap1\n      sload\n      swap1\n      0x100\n      exp\n      swap1\n      div\n      0xffffffffffffffffffffffffffffffffffffffff\n      and\n        /* \"contracts/zombiefeeding.sol\":624:662  msg.sender == zombieToOwner[_zombieId] */\n      0xffffffffffffffffffffffffffffffffffffffff\n      and\n        /* \"contracts/zombiefeeding.sol\":624:634  msg.sender */\n      caller\n        /* \"contracts/zombiefeeding.sol\":624:662  msg.sender == zombieToOwner[_zombieId] */\n      0xffffffffffffffffffffffffffffffffffffffff\n      and\n      eq\n        /* \"contracts/zombiefeeding.sol\":616:663  require(msg.sender == zombieToOwner[_zombieId]) */\n      iszero\n      iszero\n      tag_127\n      jumpi\n      0x0\n      dup1\n      revert\n    tag_127:\n        /* \"contracts/zombieattack.sol\":474:481  zombies */\n      0x4\n        /* \"contracts/zombieattack.sol\":482:491  _zombieId */\n      dup7\n        /* \"contracts/zombieattack.sol\":474:492  zombies[_zombieId] */\n      dup2\n      sload\n      dup2\n      lt\n      iszero\n      iszero\n      tag_129\n      jumpi\n      invalid\n    tag_129:\n      swap1\n      0x0\n      mstore\n      keccak256(0x0, 0x20)\n      swap1\n      0x3\n      mul\n      add\n        /* \"contracts/zombieattack.sol\":448:492  Zombie storage myZombie = zombies[_zombieId] */\n      swap4\n      pop\n        /* \"contracts/zombieattack.sol\":532:539  zombies */\n      0x4\n        /* \"contracts/zombieattack.sol\":540:549  _targetId */\n      dup6\n        /* \"contracts/zombieattack.sol\":532:550  zombies[_targetId] */\n      dup2\n      sload\n      dup2\n      lt\n      iszero\n      iszero\n      tag_131\n      jumpi\n      invalid\n    tag_131:\n      swap1\n      0x0\n      mstore\n      keccak256(0x0, 0x20)\n      swap1\n      0x3\n      mul\n      add\n        /* \"contracts/zombieattack.sol\":503:550  Zombie storage enemyZombie = zombies[_targetId] */\n      swap3\n      pop\n        /* \"contracts/zombieattack.sol\":573:585  randMod(100) */\n      tag_133\n        /* \"contracts/zombieattack.sol\":581:584  100 */\n      0x64\n        /* \"contracts/zombieattack.sol\":573:580  randMod */\n      tag_134\n        /* \"contracts/zombieattack.sol\":573:585  randMod(100) */\n      jump\t// in\n    tag_133:\n        /* \"contracts/zombieattack.sol\":561:585  uint rand = randMod(100) */\n      swap2\n      pop\n        /* \"contracts/zombieattack.sol\":607:631  attackVictoryProbability */\n      sload(0xa)\n        /* \"contracts/zombieattack.sol\":599:603  rand */\n      dup3\n        /* \"contracts/zombieattack.sol\":599:631  rand <= attackVictoryProbability */\n      gt\n      iszero\n        /* \"contracts/zombieattack.sol\":596:1076  if(rand <= attackVictoryProbability){\r... */\n      iszero\n      tag_135\n      jumpi\n        /* \"contracts/zombieattack.sol\":667:691  myZombie.winCount.add(1) */\n      tag_136\n        /* \"contracts/zombieattack.sol\":689:690  1 */\n      0x1\n        /* \"contracts/zombieattack.sol\":667:675  myZombie */\n      dup6\n        /* \"contracts/zombieattack.sol\":667:684  myZombie.winCount */\n      0x2\n      add\n      0x8\n      swap1\n      sload\n      swap1\n      0x100\n      exp\n      swap1\n      div\n      0xffff\n      and\n        /* \"contracts/zombieattack.sol\":667:688  myZombie.winCount.add */\n      0xffff\n      and\n      tag_137\n      swap1\n        /* \"contracts/zombieattack.sol\":667:691  myZombie.winCount.add(1) */\n      swap2\n      swap1\n      0xffffffff\n      and\n      jump\t// in\n    tag_136:\n        /* \"contracts/zombieattack.sol\":647:655  myZombie */\n      dup5\n        /* \"contracts/zombieattack.sol\":647:664  myZombie.winCount */\n      0x2\n      add\n      0x8\n        /* \"contracts/zombieattack.sol\":647:691  myZombie.winCount = myZombie.winCount.add(1) */\n      0x100\n      exp\n      dup2\n      sload\n      dup2\n      0xffff\n      mul\n      not\n      and\n      swap1\n      dup4\n      0xffff\n      and\n      mul\n      or\n      swap1\n      sstore\n      pop\n        /* \"contracts/zombieattack.sol\":723:744  myZombie.level.add(1) */\n      tag_138\n        /* \"contracts/zombieattack.sol\":742:743  1 */\n      0x1\n        /* \"contracts/zombieattack.sol\":723:731  myZombie */\n      dup6\n        /* \"contracts/zombieattack.sol\":723:737  myZombie.level */\n      0x2\n      add\n      0x0\n      swap1\n      sload\n      swap1\n      0x100\n      exp\n      swap1\n      div\n      0xffffffff\n      and\n        /* \"contracts/zombieattack.sol\":723:741  myZombie.level.add */\n      0xffffffff\n      and\n      tag_68\n      swap1\n        /* \"contracts/zombieattack.sol\":723:744  myZombie.level.add(1) */\n      swap2\n      swap1\n      0xffffffff\n      and\n      jump\t// in\n    tag_138:\n        /* \"contracts/zombieattack.sol\":706:714  myZombie */\n      dup5\n        /* \"contracts/zombieattack.sol\":706:720  myZombie.level */\n      0x2\n      add\n      0x0\n        /* \"contracts/zombieattack.sol\":706:744  myZombie.level = myZombie.level.add(1) */\n      0x100\n      exp\n      dup2\n      sload\n      dup2\n      0xffffffff\n      mul\n      not\n      and\n      swap1\n      dup4\n      0xffffffff\n      and\n      mul\n      or\n      swap1\n      sstore\n      pop\n        /* \"contracts/zombieattack.sol\":783:811  enemyZombie.lossCount.add(1) */\n      tag_139\n        /* \"contracts/zombieattack.sol\":809:810  1 */\n      0x1\n        /* \"contracts/zombieattack.sol\":783:794  enemyZombie */\n      dup5\n        /* \"contracts/zombieattack.sol\":783:804  enemyZombie.lossCount */\n      0x2\n      add\n      0xa\n      swap1\n      sload\n      swap1\n      0x100\n      exp\n      swap1\n      div\n      0xffff\n      and\n        /* \"contracts/zombieattack.sol\":783:808  enemyZombie.lossCount.add */\n      0xffff\n      and\n      tag_137\n      swap1\n        /* \"contracts/zombieattack.sol\":783:811  enemyZombie.lossCount.add(1) */\n      swap2\n      swap1\n      0xffffffff\n      and\n      jump\t// in\n    tag_139:\n        /* \"contracts/zombieattack.sol\":759:770  enemyZombie */\n      dup4\n        /* \"contracts/zombieattack.sol\":759:780  enemyZombie.lossCount */\n      0x2\n      add\n      0xa\n        /* \"contracts/zombieattack.sol\":759:811  enemyZombie.lossCount = enemyZombie.lossCount.add(1) */\n      0x100\n      exp\n      dup2\n      sload\n      dup2\n      0xffff\n      mul\n      not\n      and\n      swap1\n      dup4\n      0xffff\n      and\n      mul\n      or\n      swap1\n      sstore\n      pop\n        /* \"contracts/zombieattack.sol\":826:879  feedAndMultiply(_zombieId, enemyZombie.dna, \"zombie\") */\n      tag_140\n        /* \"contracts/zombieattack.sol\":842:851  _zombieId */\n      dup7\n        /* \"contracts/zombieattack.sol\":853:864  enemyZombie */\n      dup5\n        /* \"contracts/zombieattack.sol\":853:868  enemyZombie.dna */\n      0x1\n      add\n      sload\n        /* \"contracts/zombieattack.sol\":826:879  feedAndMultiply(_zombieId, enemyZombie.dna, \"zombie\") */\n      0x40\n      dup1\n      mload\n      swap1\n      dup2\n      add\n      0x40\n      mstore\n      dup1\n      0x6\n      dup2\n      mstore\n      0x20\n      add\n      0x7a6f6d6269650000000000000000000000000000000000000000000000000000\n      dup2\n      mstore\n      pop\n        /* \"contracts/zombieattack.sol\":826:841  feedAndMultiply */\n      tag_75\n        /* \"contracts/zombieattack.sol\":826:879  feedAndMultiply(_zombieId, enemyZombie.dna, \"zombie\") */\n      jump\t// in\n    tag_140:\n        /* \"contracts/zombieattack.sol\":596:1076  if(rand <= attackVictoryProbability){\r... */\n      jump(tag_141)\n    tag_135:\n        /* \"contracts/zombieattack.sol\":933:958  myZombie.lossCount.add(1) */\n      tag_142\n        /* \"contracts/zombieattack.sol\":956:957  1 */\n      0x1\n        /* \"contracts/zombieattack.sol\":933:941  myZombie */\n      dup6\n        /* \"contracts/zombieattack.sol\":933:951  myZombie.lossCount */\n      0x2\n      add\n      0xa\n      swap1\n      sload\n      swap1\n      0x100\n      exp\n      swap1\n      div\n      0xffff\n      and\n        /* \"contracts/zombieattack.sol\":933:955  myZombie.lossCount.add */\n      0xffff\n      and\n      tag_137\n      swap1\n        /* \"contracts/zombieattack.sol\":933:958  myZombie.lossCount.add(1) */\n      swap2\n      swap1\n      0xffffffff\n      and\n      jump\t// in\n    tag_142:\n        /* \"contracts/zombieattack.sol\":912:920  myZombie */\n      dup5\n        /* \"contracts/zombieattack.sol\":912:930  myZombie.lossCount */\n      0x2\n      add\n      0xa\n        /* \"contracts/zombieattack.sol\":912:958  myZombie.lossCount = myZombie.lossCount.add(1) */\n      0x100\n      exp\n      dup2\n      sload\n      dup2\n      0xffff\n      mul\n      not\n      and\n      swap1\n      dup4\n      0xffff\n      and\n      mul\n      or\n      swap1\n      sstore\n      pop\n        /* \"contracts/zombieattack.sol\":996:1023  enemyZombie.winCount.add(1) */\n      tag_143\n        /* \"contracts/zombieattack.sol\":1021:1022  1 */\n      0x1\n        /* \"contracts/zombieattack.sol\":996:1007  enemyZombie */\n      dup5\n        /* \"contracts/zombieattack.sol\":996:1016  enemyZombie.winCount */\n      0x2\n      add\n      0x8\n      swap1\n      sload\n      swap1\n      0x100\n      exp\n      swap1\n      div\n      0xffff\n      and\n        /* \"contracts/zombieattack.sol\":996:1020  enemyZombie.winCount.add */\n      0xffff\n      and\n      tag_137\n      swap1\n        /* \"contracts/zombieattack.sol\":996:1023  enemyZombie.winCount.add(1) */\n      swap2\n      swap1\n      0xffffffff\n      and\n      jump\t// in\n    tag_143:\n        /* \"contracts/zombieattack.sol\":973:984  enemyZombie */\n      dup4\n        /* \"contracts/zombieattack.sol\":973:993  enemyZombie.winCount */\n      0x2\n      add\n      0x8\n        /* \"contracts/zombieattack.sol\":973:1023  enemyZombie.winCount = enemyZombie.winCount.add(1) */\n      0x100\n      exp\n      dup2\n      sload\n      dup2\n      0xffff\n      mul\n      not\n      and\n      swap1\n      dup4\n      0xffff\n      and\n      mul\n      or\n      swap1\n      sstore\n      pop\n        /* \"contracts/zombieattack.sol\":1038:1064  _triggerCooldown(myZombie) */\n      tag_144\n        /* \"contracts/zombieattack.sol\":1055:1063  myZombie */\n      dup5\n        /* \"contracts/zombieattack.sol\":1038:1054  _triggerCooldown */\n      tag_145\n        /* \"contracts/zombieattack.sol\":1038:1064  _triggerCooldown(myZombie) */\n      jump\t// in\n    tag_144:\n        /* \"contracts/zombieattack.sol\":596:1076  if(rand <= attackVictoryProbability){\r... */\n    tag_141:\n        /* \"contracts/zombieattack.sol\":358:1093  function attack(uint _zombieId,uint _targetId) external onlyOwnerOf(_zombieId) {\r... */\n      pop\n      pop\n      pop\n      pop\n      pop\n      pop\n      jump\t// out\n        /* \"contracts/ownable.sol\":865:1038  function transferOwnership(address newOwner) public onlyOwner {\r... */\n    tag_62:\n        /* \"contracts/ownable.sol\":676:681  owner */\n      0x0\n      dup1\n      swap1\n      sload\n      swap1\n      0x100\n      exp\n      swap1\n      div\n      0xffffffffffffffffffffffffffffffffffffffff\n      and\n        /* \"contracts/ownable.sol\":662:681  msg.sender == owner */\n      0xffffffffffffffffffffffffffffffffffffffff\n      and\n        /* \"contracts/ownable.sol\":662:672  msg.sender */\n      caller\n        /* \"contracts/ownable.sol\":662:681  msg.sender == owner */\n      0xffffffffffffffffffffffffffffffffffffffff\n      and\n      eq\n        /* \"contracts/ownable.sol\":654:682  require(msg.sender == owner) */\n      iszero\n      iszero\n      tag_147\n      jumpi\n      0x0\n      dup1\n      revert\n    tag_147:\n        /* \"contracts/ownable.sol\":962:963  0 */\n      0x0\n        /* \"contracts/ownable.sol\":942:964  newOwner != address(0) */\n      0xffffffffffffffffffffffffffffffffffffffff\n      and\n        /* \"contracts/ownable.sol\":942:950  newOwner */\n      dup2\n        /* \"contracts/ownable.sol\":942:964  newOwner != address(0) */\n      0xffffffffffffffffffffffffffffffffffffffff\n      and\n      eq\n      iszero\n        /* \"contracts/ownable.sol\":934:965  require(newOwner != address(0)) */\n      iszero\n      iszero\n      tag_149\n      jumpi\n      0x0\n      dup1\n      revert\n    tag_149:\n        /* \"contracts/ownable.sol\":1000:1008  newOwner */\n      dup1\n        /* \"contracts/ownable.sol\":972:1009  OwnershipTransferred(owner, newOwner) */\n      0xffffffffffffffffffffffffffffffffffffffff\n      and\n        /* \"contracts/ownable.sol\":993:998  owner */\n      0x0\n      dup1\n      swap1\n      sload\n      swap1\n      0x100\n      exp\n      swap1\n      div\n      0xffffffffffffffffffffffffffffffffffffffff\n      and\n        /* \"contracts/ownable.sol\":972:1009  OwnershipTransferred(owner, newOwner) */\n      0xffffffffffffffffffffffffffffffffffffffff\n      and\n      0x8be0079c531659141344cd1fd0a4f28419497f9722a3daafe3b4186f6b6457e0\n      mload(0x40)\n      mload(0x40)\n      dup1\n      swap2\n      sub\n      swap1\n      log3\n        /* \"contracts/ownable.sol\":1024:1032  newOwner */\n      dup1\n        /* \"contracts/ownable.sol\":1016:1021  owner */\n      0x0\n      dup1\n        /* \"contracts/ownable.sol\":1016:1032  owner = newOwner */\n      0x100\n      exp\n      dup2\n      sload\n      dup2\n      0xffffffffffffffffffffffffffffffffffffffff\n      mul\n      not\n      and\n      swap1\n      dup4\n      0xffffffffffffffffffffffffffffffffffffffff\n      and\n      mul\n      or\n      swap1\n      sstore\n      pop\n        /* \"contracts/ownable.sol\":865:1038  function transferOwnership(address newOwner) public onlyOwner {\r... */\n      pop\n      jump\t// out\n        /* \"contracts/safemath.sol\":1865:1994  function add(uint32 a, uint32 b) internal pure returns (uint32) {\r... */\n    tag_68:\n        /* \"contracts/safemath.sol\":1921:1927  uint32 */\n      0x0\n        /* \"contracts/safemath.sol\":1936:1944  uint32 c */\n      dup1\n        /* \"contracts/safemath.sol\":1951:1952  b */\n      dup3\n        /* \"contracts/safemath.sol\":1947:1948  a */\n      dup5\n        /* \"contracts/safemath.sol\":1947:1952  a + b */\n      add\n        /* \"contracts/safemath.sol\":1936:1952  uint32 c = a + b */\n      swap1\n      pop\n        /* \"contracts/safemath.sol\":1971:1972  a */\n      dup4\n        /* \"contracts/safemath.sol\":1966:1972  c >= a */\n      0xffffffff\n      and\n        /* \"contracts/safemath.sol\":1966:1967  c */\n      dup2\n        /* \"contracts/safemath.sol\":1966:1972  c >= a */\n      0xffffffff\n      and\n      lt\n      iszero\n        /* \"contracts/safemath.sol\":1959:1973  assert(c >= a) */\n      iszero\n      iszero\n      tag_151\n      jumpi\n      invalid\n    tag_151:\n        /* \"contracts/safemath.sol\":1987:1988  c */\n      dup1\n        /* \"contracts/safemath.sol\":1980:1988  return c */\n      swap2\n      pop\n        /* \"contracts/safemath.sol\":1865:1994  function add(uint32 a, uint32 b) internal pure returns (uint32) {\r... */\n      pop\n      swap3\n      swap2\n      pop\n      pop\n      jump\t// out\n        /* \"contracts/zombiefeeding.sol\":1090:1608  function feedAndMultiply(uint _zombieId, uint _targetDna, string _species) internal onlyOwnerOf(_zombieId){\r... */\n    tag_75:\n        /* \"contracts/zombiefeeding.sol\":1217:1240  Zombie storage myZombie */\n      0x0\n        /* \"contracts/zombiefeeding.sol\":1357:1368  uint newDna */\n      dup1\n        /* \"contracts/zombiefeeding.sol\":1186:1195  _zombieId */\n      dup5\n        /* \"contracts/zombiefeeding.sol\":638:651  zombieToOwner */\n      0x5\n        /* \"contracts/zombiefeeding.sol\":638:662  zombieToOwner[_zombieId] */\n      0x0\n        /* \"contracts/zombiefeeding.sol\":652:661  _zombieId */\n      dup3\n        /* \"contracts/zombiefeeding.sol\":638:662  zombieToOwner[_zombieId] */\n      dup2\n      mstore\n      0x20\n      add\n      swap1\n      dup2\n      mstore\n      0x20\n      add\n      0x0\n      keccak256\n      0x0\n      swap1\n      sload\n      swap1\n      0x100\n      exp\n      swap1\n      div\n      0xffffffffffffffffffffffffffffffffffffffff\n      and\n        /* \"contracts/zombiefeeding.sol\":624:662  msg.sender == zombieToOwner[_zombieId] */\n      0xffffffffffffffffffffffffffffffffffffffff\n      and\n        /* \"contracts/zombiefeeding.sol\":624:634  msg.sender */\n      caller\n        /* \"contracts/zombiefeeding.sol\":624:662  msg.sender == zombieToOwner[_zombieId] */\n      0xffffffffffffffffffffffffffffffffffffffff\n      and\n      eq\n        /* \"contracts/zombiefeeding.sol\":616:663  require(msg.sender == zombieToOwner[_zombieId]) */\n      iszero\n      iszero\n      tag_153\n      jumpi\n      0x0\n      dup1\n      revert\n    tag_153:\n        /* \"contracts/zombiefeeding.sol\":1243:1250  zombies */\n      0x4\n        /* \"contracts/zombiefeeding.sol\":1251:1260  _zombieId */\n      dup7\n        /* \"contracts/zombiefeeding.sol\":1243:1261  zombies[_zombieId] */\n      dup2\n      sload\n      dup2\n      lt\n      iszero\n      iszero\n      tag_155\n      jumpi\n      invalid\n    tag_155:\n      swap1\n      0x0\n      mstore\n      keccak256(0x0, 0x20)\n      swap1\n      0x3\n      mul\n      add\n        /* \"contracts/zombiefeeding.sol\":1217:1261  Zombie storage myZombie = zombies[_zombieId] */\n      swap3\n      pop\n        /* \"contracts/zombiefeeding.sol\":1280:1298  _isReady(myZombie) */\n      tag_157\n        /* \"contracts/zombiefeeding.sol\":1289:1297  myZombie */\n      dup4\n        /* \"contracts/zombiefeeding.sol\":1280:1288  _isReady */\n      tag_158\n        /* \"contracts/zombiefeeding.sol\":1280:1298  _isReady(myZombie) */\n      jump\t// in\n    tag_157:\n        /* \"contracts/zombiefeeding.sol\":1272:1299  require(_isReady(myZombie)) */\n      iszero\n      iszero\n      tag_159\n      jumpi\n      0x0\n      dup1\n      revert\n    tag_159:\n        /* \"contracts/zombiefeeding.sol\":1336:1346  dnaModulus */\n      sload(0x2)\n        /* \"contracts/zombiefeeding.sol\":1323:1333  _targetDna */\n      dup6\n        /* \"contracts/zombiefeeding.sol\":1323:1346  _targetDna % dnaModulus */\n      dup2\n      iszero\n      iszero\n      tag_160\n      jumpi\n      invalid\n    tag_160:\n      mod\n        /* \"contracts/zombiefeeding.sol\":1310:1346  _targetDna = _targetDna % dnaModulus */\n      swap5\n      pop\n        /* \"contracts/zombiefeeding.sol\":1401:1402  2 */\n      0x2\n        /* \"contracts/zombiefeeding.sol\":1387:1397  _targetDna */\n      dup6\n        /* \"contracts/zombiefeeding.sol\":1372:1380  myZombie */\n      dup5\n        /* \"contracts/zombiefeeding.sol\":1372:1384  myZombie.dna */\n      0x1\n      add\n      sload\n        /* \"contracts/zombiefeeding.sol\":1372:1397  myZombie.dna + _targetDna */\n      add\n        /* \"contracts/zombiefeeding.sol\":1371:1402  (myZombie.dna + _targetDna) / 2 */\n      dup2\n      iszero\n      iszero\n      tag_161\n      jumpi\n      invalid\n    tag_161:\n      div\n        /* \"contracts/zombiefeeding.sol\":1357:1402  uint newDna = (myZombie.dna + _targetDna) / 2 */\n      swap2\n      pop\n        /* \"contracts/zombiefeeding.sol\":1440:1458  keccak256(\"kitty\") */\n      mload(0x40)\n      dup1\n      dup1\n      0x6b69747479000000000000000000000000000000000000000000000000000000\n      dup2\n      mstore\n      pop\n      0x5\n      add\n      swap1\n      pop\n      mload(0x40)\n      dup1\n      swap2\n      sub\n      swap1\n      keccak256\n        /* \"contracts/zombiefeeding.sol\":1417:1458  keccak256(_species) == keccak256(\"kitty\") */\n      not(0x0)\n      and\n        /* \"contracts/zombiefeeding.sol\":1427:1435  _species */\n      dup5\n        /* \"contracts/zombiefeeding.sol\":1417:1436  keccak256(_species) */\n      mload(0x40)\n      dup1\n      dup3\n      dup1\n      mload\n      swap1\n      0x20\n      add\n      swap1\n      dup1\n      dup4\n      dup4\n        /* \"--CODEGEN--\":36:189   */\n    tag_162:\n        /* \"--CODEGEN--\":66:68   */\n      0x20\n        /* \"--CODEGEN--\":61:64   */\n      dup4\n        /* \"--CODEGEN--\":58:60   */\n      lt\n        /* \"--CODEGEN--\":51:57   */\n      iszero\n        /* \"--CODEGEN--\":36:189   */\n      iszero\n      tag_163\n      jumpi\n        /* \"--CODEGEN--\":182:185   */\n      dup1\n        /* \"--CODEGEN--\":176:181   */\n      mload\n        /* \"--CODEGEN--\":171:174   */\n      dup3\n        /* \"--CODEGEN--\":164:170   */\n      mstore\n        /* \"--CODEGEN--\":98:100   */\n      0x20\n        /* \"--CODEGEN--\":93:96   */\n      dup3\n        /* \"--CODEGEN--\":89:92   */\n      add\n        /* \"--CODEGEN--\":82:101   */\n      swap2\n      pop\n        /* \"--CODEGEN--\":123:125   */\n      0x20\n        /* \"--CODEGEN--\":118:121   */\n      dup2\n        /* \"--CODEGEN--\":114:117   */\n      add\n        /* \"--CODEGEN--\":107:126   */\n      swap1\n      pop\n        /* \"--CODEGEN--\":148:150   */\n      0x20\n        /* \"--CODEGEN--\":143:146   */\n      dup4\n        /* \"--CODEGEN--\":139:142   */\n      sub\n        /* \"--CODEGEN--\":132:151   */\n      swap3\n      pop\n        /* \"--CODEGEN--\":36:189   */\n      jump(tag_162)\n    tag_163:\n        /* \"--CODEGEN--\":274:275   */\n      0x1\n        /* \"--CODEGEN--\":267:270   */\n      dup4\n        /* \"--CODEGEN--\":263:265   */\n      0x20\n        /* \"--CODEGEN--\":259:262   */\n      sub\n        /* \"--CODEGEN--\":254:257   */\n      0x100\n        /* \"--CODEGEN--\":250:253   */\n      exp\n        /* \"--CODEGEN--\":246:249   */\n      sub\n        /* \"--CODEGEN--\":315:319   */\n      dup1\n        /* \"--CODEGEN--\":311:314   */\n      not\n        /* \"--CODEGEN--\":305:308   */\n      dup3\n        /* \"--CODEGEN--\":299:304   */\n      mload\n        /* \"--CODEGEN--\":295:298   */\n      and\n        /* \"--CODEGEN--\":356:360   */\n      dup2\n        /* \"--CODEGEN--\":350:353   */\n      dup5\n        /* \"--CODEGEN--\":344:349   */\n      mload\n        /* \"--CODEGEN--\":340:343   */\n      and\n        /* \"--CODEGEN--\":389:396   */\n      dup1\n        /* \"--CODEGEN--\":380:387   */\n      dup3\n        /* \"--CODEGEN--\":377:379   */\n      or\n        /* \"--CODEGEN--\":372:375   */\n      dup6\n        /* \"--CODEGEN--\":365:371   */\n      mstore\n        /* \"--CODEGEN--\":3:402   */\n      pop\n      pop\n      pop\n      pop\n      pop\n      pop\n      swap1\n      pop\n      add\n      swap2\n      pop\n      pop\n      mload(0x40)\n      dup1\n      swap2\n      sub\n      swap1\n      keccak256\n        /* \"contracts/zombiefeeding.sol\":1417:1458  keccak256(_species) == keccak256(\"kitty\") */\n      not(0x0)\n      and\n      eq\n        /* \"contracts/zombiefeeding.sol\":1413:1522  if (keccak256(_species) == keccak256(\"kitty\")) {\r... */\n      iszero\n      tag_165\n      jumpi\n        /* \"contracts/zombiefeeding.sol\":1508:1510  99 */\n      0x63\n        /* \"contracts/zombiefeeding.sol\":1502:1505  100 */\n      0x64\n        /* \"contracts/zombiefeeding.sol\":1493:1499  newDna */\n      dup4\n        /* \"contracts/zombiefeeding.sol\":1493:1505  newDna % 100 */\n      dup2\n      iszero\n      iszero\n      tag_166\n      jumpi\n      invalid\n    tag_166:\n      mod\n        /* \"contracts/zombiefeeding.sol\":1484:1490  newDna */\n      dup4\n        /* \"contracts/zombiefeeding.sol\":1484:1505  newDna - newDna % 100 */\n      sub\n        /* \"contracts/zombiefeeding.sol\":1484:1510  newDna - newDna % 100 + 99 */\n      add\n        /* \"contracts/zombiefeeding.sol\":1475:1510  newDna = newDna - newDna % 100 + 99 */\n      swap2\n      pop\n        /* \"contracts/zombiefeeding.sol\":1413:1522  if (keccak256(_species) == keccak256(\"kitty\")) {\r... */\n    tag_165:\n        /* \"contracts/zombiefeeding.sol\":1532:1563  _createZombie(\"NoName\", newDna) */\n      tag_167\n      0x40\n      dup1\n      mload\n      swap1\n      dup2\n      add\n      0x40\n      mstore\n      dup1\n      0x6\n      dup2\n      mstore\n      0x20\n      add\n      0x4e6f4e616d650000000000000000000000000000000000000000000000000000\n      dup2\n      mstore\n      pop\n        /* \"contracts/zombiefeeding.sol\":1556:1562  newDna */\n      dup4\n        /* \"contracts/zombiefeeding.sol\":1532:1545  _createZombie */\n      tag_111\n        /* \"contracts/zombiefeeding.sol\":1532:1563  _createZombie(\"NoName\", newDna) */\n      jump\t// in\n    tag_167:\n        /* \"contracts/zombiefeeding.sol\":1574:1600  _triggerCooldown(myZombie) */\n      tag_168\n        /* \"contracts/zombiefeeding.sol\":1591:1599  myZombie */\n      dup4\n        /* \"contracts/zombiefeeding.sol\":1574:1590  _triggerCooldown */\n      tag_145\n        /* \"contracts/zombiefeeding.sol\":1574:1600  _triggerCooldown(myZombie) */\n      jump\t// in\n    tag_168:\n        /* \"contracts/zombiefeeding.sol\":1090:1608  function feedAndMultiply(uint _zombieId, uint _targetDna, string _species) internal onlyOwnerOf(_zombieId){\r... */\n      pop\n      pop\n      pop\n      pop\n      pop\n      pop\n      jump\t// out\n        /* \"contracts/zombiefactory.sol\":1024:1180  function _generateRandomDna(string _str) private view returns (uint) {\r... */\n    tag_108:\n        /* \"contracts/zombiefactory.sol\":1087:1091  uint */\n      0x0\n        /* \"contracts/zombiefactory.sol\":1104:1113  uint rand */\n      dup1\n        /* \"contracts/zombiefactory.sol\":1131:1135  _str */\n      dup3\n        /* \"contracts/zombiefactory.sol\":1121:1136  keccak256(_str) */\n      mload(0x40)\n      dup1\n      dup3\n      dup1\n      mload\n      swap1\n      0x20\n      add\n      swap1\n      dup1\n      dup4\n      dup4\n        /* \"--CODEGEN--\":36:189   */\n    tag_170:\n        /* \"--CODEGEN--\":66:68   */\n      0x20\n        /* \"--CODEGEN--\":61:64   */\n      dup4\n        /* \"--CODEGEN--\":58:60   */\n      lt\n        /* \"--CODEGEN--\":51:57   */\n      iszero\n        /* \"--CODEGEN--\":36:189   */\n      iszero\n      tag_171\n      jumpi\n        /* \"--CODEGEN--\":182:185   */\n      dup1\n        /* \"--CODEGEN--\":176:181   */\n      mload\n        /* \"--CODEGEN--\":171:174   */\n      dup3\n        /* \"--CODEGEN--\":164:170   */\n      mstore\n        /* \"--CODEGEN--\":98:100   */\n      0x20\n        /* \"--CODEGEN--\":93:96   */\n      dup3\n        /* \"--CODEGEN--\":89:92   */\n      add\n        /* \"--CODEGEN--\":82:101   */\n      swap2\n      pop\n        /* \"--CODEGEN--\":123:125   */\n      0x20\n        /* \"--CODEGEN--\":118:121   */\n      dup2\n        /* \"--CODEGEN--\":114:117   */\n      add\n        /* \"--CODEGEN--\":107:126   */\n      swap1\n      pop\n        /* \"--CODEGEN--\":148:150   */\n      0x20\n        /* \"--CODEGEN--\":143:146   */\n      dup4\n        /* \"--CODEGEN--\":139:142   */\n      sub\n        /* \"--CODEGEN--\":132:151   */\n      swap3\n      pop\n        /* \"--CODEGEN--\":36:189   */\n      jump(tag_170)\n    tag_171:\n        /* \"--CODEGEN--\":274:275   */\n      0x1\n        /* \"--CODEGEN--\":267:270   */\n      dup4\n        /* \"--CODEGEN--\":263:265   */\n      0x20\n        /* \"--CODEGEN--\":259:262   */\n      sub\n        /* \"--CODEGEN--\":254:257   */\n      0x100\n        /* \"--CODEGEN--\":250:253   */\n      exp\n        /* \"--CODEGEN--\":246:249   */\n      sub\n        /* \"--CODEGEN--\":315:319   */\n      dup1\n        /* \"--CODEGEN--\":311:314   */\n      not\n        /* \"--CODEGEN--\":305:308   */\n      dup3\n        /* \"--CODEGEN--\":299:304   */\n      mload\n        /* \"--CODEGEN--\":295:298   */\n      and\n        /* \"--CODEGEN--\":356:360   */\n      dup2\n        /* \"--CODEGEN--\":350:353   */\n      dup5\n        /* \"--CODEGEN--\":344:349   */\n      mload\n        /* \"--CODEGEN--\":340:343   */\n      and\n        /* \"--CODEGEN--\":389:396   */\n      dup1\n        /* \"--CODEGEN--\":380:387   */\n      dup3\n        /* \"--CODEGEN--\":377:379   */\n      or\n        /* \"--CODEGEN--\":372:375   */\n      dup6\n        /* \"--CODEGEN--\":365:371   */\n      mstore\n        /* \"--CODEGEN--\":3:402   */\n      pop\n      pop\n      pop\n      pop\n      pop\n      pop\n      swap1\n      pop\n      add\n      swap2\n      pop\n      pop\n      mload(0x40)\n      dup1\n      swap2\n      sub\n      swap1\n      keccak256\n        /* \"contracts/zombiefactory.sol\":1116:1137  uint(keccak256(_str)) */\n      0x1\n      swap1\n      div\n        /* \"contracts/zombiefactory.sol\":1104:1137  uint rand = uint(keccak256(_str)) */\n      swap1\n      pop\n        /* \"contracts/zombiefactory.sol\":1162:1172  dnaModulus */\n      sload(0x2)\n        /* \"contracts/zombiefactory.sol\":1155:1159  rand */\n      dup2\n        /* \"contracts/zombiefactory.sol\":1155:1172  rand % dnaModulus */\n      dup2\n      iszero\n      iszero\n      tag_173\n      jumpi\n      invalid\n    tag_173:\n      mod\n        /* \"contracts/zombiefactory.sol\":1148:1172  return rand % dnaModulus */\n      swap2\n      pop\n        /* \"contracts/zombiefactory.sol\":1024:1180  function _generateRandomDna(string _str) private view returns (uint) {\r... */\n      pop\n      swap2\n      swap1\n      pop\n      jump\t// out\n        /* \"contracts/zombiefactory.sol\":705:1016  function _createZombie(string _name, uint _dna) internal {\r... */\n    tag_111:\n        /* \"contracts/zombiefactory.sol\":773:780  uint id */\n      0x0\n        /* \"contracts/zombiefactory.sol\":852:853  1 */\n      0x1\n        /* \"contracts/zombiefactory.sol\":783:790  zombies */\n      0x4\n        /* \"contracts/zombiefactory.sol\":783:849  zombies.push(Zombie(_name, _dna,1,uint32(now + cooldownTime),0,0)) */\n      dup1\n      sload\n      dup1\n      0x1\n      add\n      dup3\n      dup2\n      tag_175\n      swap2\n      swap1\n      jump\t// in(tag_176)\n    tag_175:\n      swap2\n      0x0\n      mstore\n      keccak256(0x0, 0x20)\n      swap1\n      0x3\n      mul\n      add\n      0x0\n        /* \"contracts/zombiefactory.sol\":796:848  Zombie(_name, _dna,1,uint32(now + cooldownTime),0,0) */\n      0xc0\n      mload(0x40)\n      swap1\n      dup2\n      add\n      0x40\n      mstore\n      dup1\n        /* \"contracts/zombiefactory.sol\":803:808  _name */\n      dup9\n        /* \"contracts/zombiefactory.sol\":796:848  Zombie(_name, _dna,1,uint32(now + cooldownTime),0,0) */\n      dup2\n      mstore\n      0x20\n      add\n        /* \"contracts/zombiefactory.sol\":810:814  _dna */\n      dup8\n        /* \"contracts/zombiefactory.sol\":796:848  Zombie(_name, _dna,1,uint32(now + cooldownTime),0,0) */\n      dup2\n      mstore\n      0x20\n      add\n        /* \"contracts/zombiefactory.sol\":815:816  1 */\n      0x1\n        /* \"contracts/zombiefactory.sol\":796:848  Zombie(_name, _dna,1,uint32(now + cooldownTime),0,0) */\n      0xffffffff\n      and\n      dup2\n      mstore\n      0x20\n      add\n        /* \"contracts/zombiefactory.sol\":830:842  cooldownTime */\n      sload(0x3)\n        /* \"contracts/zombiefactory.sol\":824:827  now */\n      timestamp\n        /* \"contracts/zombiefactory.sol\":824:842  now + cooldownTime */\n      add\n        /* \"contracts/zombiefactory.sol\":796:848  Zombie(_name, _dna,1,uint32(now + cooldownTime),0,0) */\n      0xffffffff\n      and\n      dup2\n      mstore\n      0x20\n      add\n        /* \"contracts/zombiefactory.sol\":844:845  0 */\n      0x0\n        /* \"contracts/zombiefactory.sol\":796:848  Zombie(_name, _dna,1,uint32(now + cooldownTime),0,0) */\n      0xffff\n      and\n      dup2\n      mstore\n      0x20\n      add\n        /* \"contracts/zombiefactory.sol\":846:847  0 */\n      0x0\n        /* \"contracts/zombiefactory.sol\":796:848  Zombie(_name, _dna,1,uint32(now + cooldownTime),0,0) */\n      0xffff\n      and\n      dup2\n      mstore\n      pop\n        /* \"contracts/zombiefactory.sol\":783:849  zombies.push(Zombie(_name, _dna,1,uint32(now + cooldownTime),0,0)) */\n      swap1\n      swap2\n      swap1\n      swap2\n      pop\n      0x0\n      dup3\n      add\n      mload\n      dup2\n      0x0\n      add\n      swap1\n      dup1\n      mload\n      swap1\n      0x20\n      add\n      swap1\n      tag_178\n      swap3\n      swap2\n      swap1\n      jump\t// in(tag_179)\n    tag_178:\n      pop\n      0x20\n      dup3\n      add\n      mload\n      dup2\n      0x1\n      add\n      sstore\n      0x40\n      dup3\n      add\n      mload\n      dup2\n      0x2\n      add\n      exp(0x100, 0x0)\n      dup2\n      sload\n      dup2\n      0xffffffff\n      mul\n      not\n      and\n      swap1\n      dup4\n      0xffffffff\n      and\n      mul\n      or\n      swap1\n      sstore\n      pop\n      0x60\n      dup3\n      add\n      mload\n      dup2\n      0x2\n      add\n      exp(0x100, 0x4)\n      dup2\n      sload\n      dup2\n      0xffffffff\n      mul\n      not\n      and\n      swap1\n      dup4\n      0xffffffff\n      and\n      mul\n      or\n      swap1\n      sstore\n      pop\n      0x80\n      dup3\n      add\n      mload\n      dup2\n      0x2\n      add\n      exp(0x100, 0x8)\n      dup2\n      sload\n      dup2\n      0xffff\n      mul\n      not\n      and\n      swap1\n      dup4\n      0xffff\n      and\n      mul\n      or\n      swap1\n      sstore\n      pop\n      0xa0\n      dup3\n      add\n      mload\n      dup2\n      0x2\n      add\n      exp(0x100, 0xa)\n      dup2\n      sload\n      dup2\n      0xffff\n      mul\n      not\n      and\n      swap1\n      dup4\n      0xffff\n      and\n      mul\n      or\n      swap1\n      sstore\n      pop\n      pop\n      pop\n        /* \"contracts/zombiefactory.sol\":783:853  zombies.push(Zombie(_name, _dna,1,uint32(now + cooldownTime),0,0)) - 1 */\n      sub\n        /* \"contracts/zombiefactory.sol\":773:853  uint id = zombies.push(Zombie(_name, _dna,1,uint32(now + cooldownTime),0,0)) - 1 */\n      swap1\n      pop\n        /* \"contracts/zombiefactory.sol\":884:894  msg.sender */\n      caller\n        /* \"contracts/zombiefactory.sol\":864:877  zombieToOwner */\n      0x5\n        /* \"contracts/zombiefactory.sol\":864:881  zombieToOwner[id] */\n      0x0\n        /* \"contracts/zombiefactory.sol\":878:880  id */\n      dup4\n        /* \"contracts/zombiefactory.sol\":864:881  zombieToOwner[id] */\n      dup2\n      mstore\n      0x20\n      add\n      swap1\n      dup2\n      mstore\n      0x20\n      add\n      0x0\n      keccak256\n      0x0\n        /* \"contracts/zombiefactory.sol\":864:894  zombieToOwner[id] = msg.sender */\n      0x100\n      exp\n      dup2\n      sload\n      dup2\n      0xffffffffffffffffffffffffffffffffffffffff\n      mul\n      not\n      and\n      swap1\n      dup4\n      0xffffffffffffffffffffffffffffffffffffffff\n      and\n      mul\n      or\n      swap1\n      sstore\n      pop\n        /* \"contracts/zombiefactory.sol\":936:971  ownerZombieCount[msg.sender].add(1) */\n      tag_180\n        /* \"contracts/zombiefactory.sol\":969:970  1 */\n      0x1\n        /* \"contracts/zombiefactory.sol\":936:952  ownerZombieCount */\n      0x6\n        /* \"contracts/zombiefactory.sol\":936:964  ownerZombieCount[msg.sender] */\n      0x0\n        /* \"contracts/zombiefactory.sol\":953:963  msg.sender */\n      caller\n        /* \"contracts/zombiefactory.sol\":936:964  ownerZombieCount[msg.sender] */\n      0xffffffffffffffffffffffffffffffffffffffff\n      and\n      0xffffffffffffffffffffffffffffffffffffffff\n      and\n      dup2\n      mstore\n      0x20\n      add\n      swap1\n      dup2\n      mstore\n      0x20\n      add\n      0x0\n      keccak256\n      sload\n        /* \"contracts/zombiefactory.sol\":936:968  ownerZombieCount[msg.sender].add */\n      tag_181\n      swap1\n        /* \"contracts/zombiefactory.sol\":936:971  ownerZombieCount[msg.sender].add(1) */\n      swap2\n      swap1\n      0xffffffff\n      and\n      jump\t// in\n    tag_180:\n        /* \"contracts/zombiefactory.sol\":905:921  ownerZombieCount */\n      0x6\n        /* \"contracts/zombiefactory.sol\":905:933  ownerZombieCount[msg.sender] */\n      0x0\n        /* \"contracts/zombiefactory.sol\":922:932  msg.sender */\n      caller\n        /* \"contracts/zombiefactory.sol\":905:933  ownerZombieCount[msg.sender] */\n      0xffffffffffffffffffffffffffffffffffffffff\n      and\n      0xffffffffffffffffffffffffffffffffffffffff\n      and\n      dup2\n      mstore\n      0x20\n      add\n      swap1\n      dup2\n      mstore\n      0x20\n      add\n      0x0\n      keccak256\n        /* \"contracts/zombiefactory.sol\":905:971  ownerZombieCount[msg.sender] = ownerZombieCount[msg.sender].add(1) */\n      dup2\n      swap1\n      sstore\n      pop\n        /* \"contracts/zombiefactory.sol\":982:1008  NewZombie(id, _name, _dna) */\n      0x88f026aacbbecc90c18411df4b1185fd8d9be2470f1962f192bf84a27d0704b7\n        /* \"contracts/zombiefactory.sol\":992:994  id */\n      dup2\n        /* \"contracts/zombiefactory.sol\":996:1001  _name */\n      dup5\n        /* \"contracts/zombiefactory.sol\":1003:1007  _dna */\n      dup5\n        /* \"contracts/zombiefactory.sol\":982:1008  NewZombie(id, _name, _dna) */\n      mload(0x40)\n      dup1\n      dup5\n      dup2\n      mstore\n      0x20\n      add\n      dup1\n      0x20\n      add\n      dup4\n      dup2\n      mstore\n      0x20\n      add\n      dup3\n      dup2\n      sub\n      dup3\n      mstore\n      dup5\n      dup2\n      dup2\n      mload\n      dup2\n      mstore\n      0x20\n      add\n      swap2\n      pop\n      dup1\n      mload\n      swap1\n      0x20\n      add\n      swap1\n      dup1\n      dup4\n      dup4\n        /* \"--CODEGEN--\":23:24   */\n      0x0\n        /* \"--CODEGEN--\":8:108   */\n    tag_182:\n        /* \"--CODEGEN--\":33:36   */\n      dup4\n        /* \"--CODEGEN--\":30:31   */\n      dup2\n        /* \"--CODEGEN--\":27:29   */\n      lt\n        /* \"--CODEGEN--\":8:108   */\n      iszero\n      tag_183\n      jumpi\n        /* \"--CODEGEN--\":99:100   */\n      dup1\n        /* \"--CODEGEN--\":94:97   */\n      dup3\n        /* \"--CODEGEN--\":90:93   */\n      add\n        /* \"--CODEGEN--\":84:89   */\n      mload\n        /* \"--CODEGEN--\":80:81   */\n      dup2\n        /* \"--CODEGEN--\":75:78   */\n      dup5\n        /* \"--CODEGEN--\":71:74   */\n      add\n        /* \"--CODEGEN--\":64:70   */\n      mstore\n        /* \"--CODEGEN--\":52:54   */\n      0x20\n        /* \"--CODEGEN--\":49:50   */\n      dup2\n        /* \"--CODEGEN--\":45:48   */\n      add\n        /* \"--CODEGEN--\":40:55   */\n      swap1\n      pop\n        /* \"--CODEGEN--\":8:108   */\n      jump(tag_182)\n    tag_183:\n        /* \"--CODEGEN--\":12:26   */\n      pop\n        /* \"--CODEGEN--\":3:112   */\n      pop\n      pop\n      pop\n      swap1\n      pop\n      swap1\n      dup2\n      add\n      swap1\n      0x1f\n      and\n      dup1\n      iszero\n      tag_185\n      jumpi\n      dup1\n      dup3\n      sub\n      dup1\n      mload\n      0x1\n      dup4\n      0x20\n      sub\n      0x100\n      exp\n      sub\n      not\n      and\n      dup2\n      mstore\n      0x20\n      add\n      swap2\n      pop\n    tag_185:\n      pop\n      swap5\n      pop\n      pop\n      pop\n      pop\n      pop\n      mload(0x40)\n      dup1\n      swap2\n      sub\n      swap1\n      log1\n        /* \"contracts/zombiefactory.sol\":705:1016  function _createZombie(string _name, uint _dna) internal {\r... */\n      pop\n      pop\n      pop\n      jump\t// out\n        /* \"contracts/zombieattack.sol\":175:350  function randMod(uint _modulus) internal returns (uint) {\r... */\n    tag_134:\n        /* \"contracts/zombieattack.sol\":225:229  uint */\n      0x0\n        /* \"contracts/zombieattack.sol\":254:270  randNonce.add(1) */\n      tag_187\n        /* \"contracts/zombieattack.sol\":268:269  1 */\n      0x1\n        /* \"contracts/zombieattack.sol\":254:263  randNonce */\n      sload(0x9)\n        /* \"contracts/zombieattack.sol\":254:267  randNonce.add */\n      tag_181\n      swap1\n        /* \"contracts/zombieattack.sol\":254:270  randNonce.add(1) */\n      swap2\n      swap1\n      0xffffffff\n      and\n      jump\t// in\n    tag_187:\n        /* \"contracts/zombieattack.sol\":242:251  randNonce */\n      0x9\n        /* \"contracts/zombieattack.sol\":242:270  randNonce = randNonce.add(1) */\n      dup2\n      swap1\n      sstore\n      pop\n        /* \"contracts/zombieattack.sol\":334:342  _modulus */\n      dup2\n        /* \"contracts/zombieattack.sol\":303:306  now */\n      timestamp\n        /* \"contracts/zombieattack.sol\":308:318  msg.sender */\n      caller\n        /* \"contracts/zombieattack.sol\":320:329  randNonce */\n      sload(0x9)\n        /* \"contracts/zombieattack.sol\":293:330  keccak256(now, msg.sender, randNonce) */\n      mload(0x40)\n      dup1\n      dup5\n      dup2\n      mstore\n      0x20\n      add\n      dup4\n      0xffffffffffffffffffffffffffffffffffffffff\n      and\n      0xffffffffffffffffffffffffffffffffffffffff\n      and\n      0x1000000000000000000000000\n      mul\n      dup2\n      mstore\n      0x14\n      add\n      dup3\n      dup2\n      mstore\n      0x20\n      add\n      swap4\n      pop\n      pop\n      pop\n      pop\n      mload(0x40)\n      dup1\n      swap2\n      sub\n      swap1\n      keccak256\n        /* \"contracts/zombieattack.sol\":288:331  uint(keccak256(now, msg.sender, randNonce)) */\n      0x1\n      swap1\n      div\n        /* \"contracts/zombieattack.sol\":288:342  uint(keccak256(now, msg.sender, randNonce)) % _modulus */\n      dup2\n      iszero\n      iszero\n      tag_188\n      jumpi\n      invalid\n    tag_188:\n      mod\n        /* \"contracts/zombieattack.sol\":281:342  return uint(keccak256(now, msg.sender, randNonce)) % _modulus */\n      swap1\n      pop\n        /* \"contracts/zombieattack.sol\":175:350  function randMod(uint _modulus) internal returns (uint) {\r... */\n      swap2\n      swap1\n      pop\n      jump\t// out\n        /* \"contracts/safemath.sol\":2678:2807  function add(uint16 a, uint16 b) internal pure returns (uint16) {\r... */\n    tag_137:\n        /* \"contracts/safemath.sol\":2734:2740  uint16 */\n      0x0\n        /* \"contracts/safemath.sol\":2749:2757  uint16 c */\n      dup1\n        /* \"contracts/safemath.sol\":2764:2765  b */\n      dup3\n        /* \"contracts/safemath.sol\":2760:2761  a */\n      dup5\n        /* \"contracts/safemath.sol\":2760:2765  a + b */\n      add\n        /* \"contracts/safemath.sol\":2749:2765  uint16 c = a + b */\n      swap1\n      pop\n        /* \"contracts/safemath.sol\":2784:2785  a */\n      dup4\n        /* \"contracts/safemath.sol\":2779:2785  c >= a */\n      0xffff\n      and\n        /* \"contracts/safemath.sol\":2779:2780  c */\n      dup2\n        /* \"contracts/safemath.sol\":2779:2785  c >= a */\n      0xffff\n      and\n      lt\n      iszero\n        /* \"contracts/safemath.sol\":2772:2786  assert(c >= a) */\n      iszero\n      iszero\n      tag_190\n      jumpi\n      invalid\n    tag_190:\n        /* \"contracts/safemath.sol\":2800:2801  c */\n      dup1\n        /* \"contracts/safemath.sol\":2793:2801  return c */\n      swap2\n      pop\n        /* \"contracts/safemath.sol\":2678:2807  function add(uint16 a, uint16 b) internal pure returns (uint16) {\r... */\n      pop\n      swap3\n      swap2\n      pop\n      pop\n      jump\t// out\n        /* \"contracts/zombiefeeding.sol\":828:952  function _triggerCooldown(Zombie storage _zombie) internal {\r... */\n    tag_145:\n        /* \"contracts/zombiefeeding.sol\":931:943  cooldownTime */\n      sload(0x3)\n        /* \"contracts/zombiefeeding.sol\":925:928  now */\n      timestamp\n        /* \"contracts/zombiefeeding.sol\":925:943  now + cooldownTime */\n      add\n        /* \"contracts/zombiefeeding.sol\":898:905  _zombie */\n      dup2\n        /* \"contracts/zombiefeeding.sol\":898:915  _zombie.readyTime */\n      0x2\n      add\n      0x4\n        /* \"contracts/zombiefeeding.sol\":898:944  _zombie.readyTime = uint32(now + cooldownTime) */\n      0x100\n      exp\n      dup2\n      sload\n      dup2\n      0xffffffff\n      mul\n      not\n      and\n      swap1\n      dup4\n      0xffffffff\n      and\n      mul\n      or\n      swap1\n      sstore\n      pop\n        /* \"contracts/zombiefeeding.sol\":828:952  function _triggerCooldown(Zombie storage _zombie) internal {\r... */\n      pop\n      jump\t// out\n        /* \"contracts/zombiefeeding.sol\":960:1082  function _isReady(Zombie storage _zombie) internal view returns (bool){\r... */\n    tag_158:\n        /* \"contracts/zombiefeeding.sol\":1025:1029  bool */\n      0x0\n        /* \"contracts/zombiefeeding.sol\":1070:1073  now */\n      timestamp\n        /* \"contracts/zombiefeeding.sol\":1049:1056  _zombie */\n      dup3\n        /* \"contracts/zombiefeeding.sol\":1049:1066  _zombie.readyTime */\n      0x2\n      add\n      0x4\n      swap1\n      sload\n      swap1\n      0x100\n      exp\n      swap1\n      div\n      0xffffffff\n      and\n        /* \"contracts/zombiefeeding.sol\":1049:1073  _zombie.readyTime <= now */\n      0xffffffff\n      and\n      gt\n      iszero\n        /* \"contracts/zombiefeeding.sol\":1041:1074  return (_zombie.readyTime <= now) */\n      swap1\n      pop\n        /* \"contracts/zombiefeeding.sol\":960:1082  function _isReady(Zombie storage _zombie) internal view returns (bool){\r... */\n      swap2\n      swap1\n      pop\n      jump\t// out\n        /* \"contracts/safemath.sol\":1048:1181  function add(uint256 a, uint256 b) internal pure returns (uint256) {\r... */\n    tag_181:\n        /* \"contracts/safemath.sol\":1106:1113  uint256 */\n      0x0\n        /* \"contracts/safemath.sol\":1122:1131  uint256 c */\n      dup1\n        /* \"contracts/safemath.sol\":1138:1139  b */\n      dup3\n        /* \"contracts/safemath.sol\":1134:1135  a */\n      dup5\n        /* \"contracts/safemath.sol\":1134:1139  a + b */\n      add\n        /* \"contracts/safemath.sol\":1122:1139  uint256 c = a + b */\n      swap1\n      pop\n        /* \"contracts/safemath.sol\":1158:1159  a */\n      dup4\n        /* \"contracts/safemath.sol\":1153:1154  c */\n      dup2\n        /* \"contracts/safemath.sol\":1153:1159  c >= a */\n      lt\n      iszero\n        /* \"contracts/safemath.sol\":1146:1160  assert(c >= a) */\n      iszero\n      iszero\n      tag_194\n      jumpi\n      invalid\n    tag_194:\n        /* \"contracts/safemath.sol\":1174:1175  c */\n      dup1\n        /* \"contracts/safemath.sol\":1167:1175  return c */\n      swap2\n      pop\n        /* \"contracts/safemath.sol\":1048:1181  function add(uint256 a, uint256 b) internal pure returns (uint256) {\r... */\n      pop\n      swap3\n      swap2\n      pop\n      pop\n      jump\t// out\n        /* \"contracts/zombieattack.sol\":60:1096  contract ZombieAttack is ZombieHelper {\r... */\n    tag_83:\n      0x20\n      mload(0x40)\n      swap1\n      dup2\n      add\n      0x40\n      mstore\n      dup1\n      0x0\n      dup2\n      mstore\n      pop\n      swap1\n      jump\t// out\n    tag_122:\n      dup3\n      dup1\n      sload\n      0x1\n      dup2\n      0x1\n      and\n      iszero\n      0x100\n      mul\n      sub\n      and\n      0x2\n      swap1\n      div\n      swap1\n      0x0\n      mstore\n      keccak256(0x0, 0x20)\n      swap1\n      0x1f\n      add\n      0x20\n      swap1\n      div\n      dup2\n      add\n      swap3\n      dup3\n      0x1f\n      lt\n      tag_196\n      jumpi\n      dup1\n      calldataload\n      not(0xff)\n      and\n      dup4\n      dup1\n      add\n      or\n      dup6\n      sstore\n      jump(tag_195)\n    tag_196:\n      dup3\n      dup1\n      add\n      0x1\n      add\n      dup6\n      sstore\n      dup3\n      iszero\n      tag_195\n      jumpi\n      swap2\n      dup3\n      add\n    tag_197:\n      dup3\n      dup2\n      gt\n      iszero\n      tag_198\n      jumpi\n      dup3\n      calldataload\n      dup3\n      sstore\n      swap2\n      0x20\n      add\n      swap2\n      swap1\n      0x1\n      add\n      swap1\n      jump(tag_197)\n    tag_198:\n    tag_195:\n      pop\n      swap1\n      pop\n      tag_199\n      swap2\n      swap1\n      jump\t// in(tag_200)\n    tag_199:\n      pop\n      swap1\n      jump\t// out\n    tag_176:\n      dup2\n      sload\n      dup2\n      dup4\n      sstore\n      dup2\n      dup2\n      iszero\n      gt\n      tag_201\n      jumpi\n      0x3\n      mul\n      dup2\n      0x3\n      mul\n      dup4\n      0x0\n      mstore\n      keccak256(0x0, 0x20)\n      swap2\n      dup3\n      add\n      swap2\n      add\n      tag_202\n      swap2\n      swap1\n      jump\t// in(tag_203)\n    tag_202:\n    tag_201:\n      pop\n      pop\n      pop\n      jump\t// out\n    tag_179:\n      dup3\n      dup1\n      sload\n      0x1\n      dup2\n      0x1\n      and\n      iszero\n      0x100\n      mul\n      sub\n      and\n      0x2\n      swap1\n      div\n      swap1\n      0x0\n      mstore\n      keccak256(0x0, 0x20)\n      swap1\n      0x1f\n      add\n      0x20\n      swap1\n      div\n      dup2\n      add\n      swap3\n      dup3\n      0x1f\n      lt\n      tag_205\n      jumpi\n      dup1\n      mload\n      not(0xff)\n      and\n      dup4\n      dup1\n      add\n      or\n      dup6\n      sstore\n      jump(tag_204)\n    tag_205:\n      dup3\n      dup1\n      add\n      0x1\n      add\n      dup6\n      sstore\n      dup3\n      iszero\n      tag_204\n      jumpi\n      swap2\n      dup3\n      add\n    tag_206:\n      dup3\n      dup2\n      gt\n      iszero\n      tag_207\n      jumpi\n      dup3\n      mload\n      dup3\n      sstore\n      swap2\n      0x20\n      add\n      swap2\n      swap1\n      0x1\n      add\n      swap1\n      jump(tag_206)\n    tag_207:\n    tag_204:\n      pop\n      swap1\n      pop\n      tag_208\n      swap2\n      swap1\n      jump\t// in(tag_200)\n    tag_208:\n      pop\n      swap1\n      jump\t// out\n    tag_200:\n      tag_209\n      swap2\n      swap1\n    tag_210:\n      dup1\n      dup3\n      gt\n      iszero\n      tag_211\n      jumpi\n      0x0\n      dup2\n      0x0\n      swap1\n      sstore\n      pop\n      0x1\n      add\n      jump(tag_210)\n    tag_211:\n      pop\n      swap1\n      jump\n    tag_209:\n      swap1\n      jump\t// out\n    tag_203:\n      tag_212\n      swap2\n      swap1\n    tag_213:\n      dup1\n      dup3\n      gt\n      iszero\n      tag_214\n      jumpi\n      0x0\n      dup1\n      dup3\n      add\n      0x0\n      tag_215\n      swap2\n      swap1\n      jump\t// in(tag_216)\n    tag_215:\n      0x1\n      dup3\n      add\n      0x0\n      swap1\n      sstore\n      0x2\n      dup3\n      add\n      exp(0x100, 0x0)\n      dup2\n      sload\n      swap1\n      0xffffffff\n      mul\n      not\n      and\n      swap1\n      sstore\n      0x2\n      dup3\n      add\n      exp(0x100, 0x4)\n      dup2\n      sload\n      swap1\n      0xffffffff\n      mul\n      not\n      and\n      swap1\n      sstore\n      0x2\n      dup3\n      add\n      exp(0x100, 0x8)\n      dup2\n      sload\n      swap1\n      0xffff\n      mul\n      not\n      and\n      swap1\n      sstore\n      0x2\n      dup3\n      add\n      exp(0x100, 0xa)\n      dup2\n      sload\n      swap1\n      0xffff\n      mul\n      not\n      and\n      swap1\n      sstore\n      pop\n      0x3\n      add\n      jump(tag_213)\n    tag_214:\n      pop\n      swap1\n      jump\n    tag_212:\n      swap1\n      jump\t// out\n    tag_216:\n      pop\n      dup1\n      sload\n      0x1\n      dup2\n      0x1\n      and\n      iszero\n      0x100\n      mul\n      sub\n      and\n      0x2\n      swap1\n      div\n      0x0\n      dup3\n      sstore\n      dup1\n      0x1f\n      lt\n      tag_218\n      jumpi\n      pop\n      jump(tag_217)\n    tag_218:\n      0x1f\n      add\n      0x20\n      swap1\n      div\n      swap1\n      0x0\n      mstore\n      keccak256(0x0, 0x20)\n      swap1\n      dup2\n      add\n      swap1\n      tag_219\n      swap2\n      swap1\n      jump\t// in(tag_200)\n    tag_219:\n    tag_217:\n      pop\n      jump\t// out\n\n    auxdata: 0xa165627a7a723058201642d8190c861de2e010e1862f93365ffe2abb8234b68c119188e5b864bd97fc0029\n}\n",
				"bytecode": {
					"linkReferences": {},
					"object": "60606040526010600155600154600a0a6002556201518060035566038d7ea4c6800060085560006009556046600a55336000806101000a81548173ffffffffffffffffffffffffffffffffffffffff021916908373ffffffffffffffffffffffffffffffffffffffff160217905550611a018061007d6000396000f3006060604052600436106100d0576000357c0100000000000000000000000000000000000000000000000000000000900463ffffffff1680630ce90ec2146100d557806317a7f4cc146100ed5780632052465e146101195780633ccfd60b1461021d5780634412e10414610232578063528b7b8f146102c05780635f4623f1146103235780635faf28801461035c5780637bff0a01146103885780638da5cb5b146103e5578063c39cbef11461043a578063ccf670f814610471578063e1fa763814610494578063f2fde38b146104c0575b600080fd5b6100eb60048080359060200190919050506104f9565b005b34156100f857600080fd5b6101176004808035906020019091908035906020019091905050610594565b005b341561012457600080fd5b61013a6004808035906020019091905050610701565b60405180806020018781526020018663ffffffff1663ffffffff1681526020018563ffffffff1663ffffffff1681526020018461ffff1661ffff1681526020018361ffff1661ffff1681526020018281038252888181546001816001161561010002031660029004815260200191508054600181600116156101000203166002900480156102095780601f106101de57610100808354040283529160200191610209565b820191906000526020600020905b8154815290600101906020018083116101ec57829003601f168201915b505097505050505050505060405180910390f35b341561022857600080fd5b610230610787565b005b341561023d57600080fd5b610269600480803573ffffffffffffffffffffffffffffffffffffffff1690602001909190505061085c565b6040518080602001828103825283818151815260200191508051906020019060200280838360005b838110156102ac578082015181840152602081019050610291565b505050509050019250505060405180910390f35b34156102cb57600080fd5b6102e1600480803590602001909190505061098a565b604051808273ffffffffffffffffffffffffffffffffffffffff1673ffffffffffffffffffffffffffffffffffffffff16815260200191505060405180910390f35b341561032e57600080fd5b61035a600480803573ffffffffffffffffffffffffffffffffffffffff169060200190919050506109bd565b005b341561036757600080fd5b6103866004808035906020019091908035906020019091905050610a5c565b005b341561039357600080fd5b6103e3600480803590602001908201803590602001908080601f01602080910402602001604051908101604052809392919081815260200183838082843782019150505050505091905050610b3e565b005b34156103f057600080fd5b6103f8610bb7565b604051808273ffffffffffffffffffffffffffffffffffffffff1673ffffffffffffffffffffffffffffffffffffffff16815260200191505060405180910390f35b341561044557600080fd5b61046f60048080359060200190919080359060200190820180359060200191909192905050610bdc565b005b341561047c57600080fd5b6104926004808035906020019091905050610cca565b005b341561049f57600080fd5b6104be6004808035906020019091908035906020019091905050610d2f565b005b34156104cb57600080fd5b6104f7600480803573ffffffffffffffffffffffffffffffffffffffff16906020019091905050610fc2565b005b6008543414151561050957600080fd5b610553600160048381548110151561051d57fe5b906000526020600020906003020160020160009054906101000a900463ffffffff1663ffffffff1661111790919063ffffffff16565b60048281548110151561056257fe5b906000526020600020906003020160020160006101000a81548163ffffffff021916908363ffffffff16021790555050565b6000600760009054906101000a900473ffffffffffffffffffffffffffffffffffffffff1673ffffffffffffffffffffffffffffffffffffffff1663e98b7f4d83600060405161014001526040518263ffffffff167c01000000000000000000000000000000000000000000000000000000000281526004018082815260200191505061014060405180830381600087803b151561063157600080fd5b6102c65a03f1151561064257600080fd5b50505060405180519060200180519060200180519060200180519060200180519060200180519060200180519060200180519060200180519060200180519050909192939495969798509091929394959697509091929394959650909192939495509091929394509091929350909192509091509050809150506106fc83826040805190810160405280600581526020017f6b69747479000000000000000000000000000000000000000000000000000000815250611141565b505050565b60048181548110151561071057fe5b906000526020600020906003020160009150905080600001908060010154908060020160009054906101000a900463ffffffff16908060020160049054906101000a900463ffffffff16908060020160089054906101000a900461ffff169080600201600a9054906101000a900461ffff16905086565b6000809054906101000a900473ffffffffffffffffffffffffffffffffffffffff1673ffffffffffffffffffffffffffffffffffffffff163373ffffffffffffffffffffffffffffffffffffffff161415156107e257600080fd5b6000809054906101000a900473ffffffffffffffffffffffffffffffffffffffff1673ffffffffffffffffffffffffffffffffffffffff166108fc3073ffffffffffffffffffffffffffffffffffffffff16319081150290604051600060405180830381858888f19350505050151561085a57600080fd5b565b610864611793565b61086c611793565b600080600660008673ffffffffffffffffffffffffffffffffffffffff1673ffffffffffffffffffffffffffffffffffffffff168152602001908152602001600020546040518059106108bc5750595b9080825280602002602001820160405250925060009150600090505b60048054905081101561097f578473ffffffffffffffffffffffffffffffffffffffff166005600083815260200190815260200160002060009054906101000a900473ffffffffffffffffffffffffffffffffffffffff1673ffffffffffffffffffffffffffffffffffffffff1614156109725780838381518110151561095b57fe5b906020019060200201818152505081806001019250505b80806001019150506108d8565b829350505050919050565b60056020528060005260406000206000915054906101000a900473ffffffffffffffffffffffffffffffffffffffff1681565b6000809054906101000a900473ffffffffffffffffffffffffffffffffffffffff1673ffffffffffffffffffffffffffffffffffffffff163373ffffffffffffffffffffffffffffffffffffffff16141515610a1857600080fd5b80600760006101000a81548173ffffffffffffffffffffffffffffffffffffffff021916908373ffffffffffffffffffffffffffffffffffffffff16021790555050565b60148281600482815481101515610a6f57fe5b906000526020600020906003020160020160009054906101000a900463ffffffff1663ffffffff1610151515610aa457600080fd5b836005600082815260200190815260200160002060009054906101000a900473ffffffffffffffffffffffffffffffffffffffff1673ffffffffffffffffffffffffffffffffffffffff163373ffffffffffffffffffffffffffffffffffffffff16141515610b1257600080fd5b83600486815481101515610b2257fe5b9060005260206000209060030201600101819055505050505050565b600080600660003373ffffffffffffffffffffffffffffffffffffffff1673ffffffffffffffffffffffffffffffffffffffff16815260200190815260200160002054141515610b8d57600080fd5b610b9682611316565b9050606481811515610ba457fe5b0681039050610bb38282611398565b5050565b6000809054906101000a900473ffffffffffffffffffffffffffffffffffffffff1681565b60028381600482815481101515610bef57fe5b906000526020600020906003020160020160009054906101000a900463ffffffff1663ffffffff1610151515610c2457600080fd5b846005600082815260200190815260200160002060009054906101000a900473ffffffffffffffffffffffffffffffffffffffff1673ffffffffffffffffffffffffffffffffffffffff163373ffffffffffffffffffffffffffffffffffffffff16141515610c9257600080fd5b8484600488815481101515610ca357fe5b90600052602060002090600302016000019190610cc19291906117a7565b50505050505050565b6000809054906101000a900473ffffffffffffffffffffffffffffffffffffffff1673ffffffffffffffffffffffffffffffffffffffff163373ffffffffffffffffffffffffffffffffffffffff16141515610d2557600080fd5b8060088190555050565b6000806000846005600082815260200190815260200160002060009054906101000a900473ffffffffffffffffffffffffffffffffffffffff1673ffffffffffffffffffffffffffffffffffffffff163373ffffffffffffffffffffffffffffffffffffffff16141515610da257600080fd5b600486815481101515610db157fe5b90600052602060002090600302019350600485815481101515610dd057fe5b90600052602060002090600302019250610dea6064611667565b9150600a5482111515610f2057610e2160018560020160089054906101000a900461ffff1661ffff166116fe90919063ffffffff16565b8460020160086101000a81548161ffff021916908361ffff160217905550610e6d60018560020160009054906101000a900463ffffffff1663ffffffff1661111790919063ffffffff16565b8460020160006101000a81548163ffffffff021916908363ffffffff160217905550610eb9600184600201600a9054906101000a900461ffff1661ffff166116fe90919063ffffffff16565b83600201600a6101000a81548161ffff021916908361ffff160217905550610f1b8684600101546040805190810160405280600681526020017f7a6f6d6269650000000000000000000000000000000000000000000000000000815250611141565b610fba565b610f4a600185600201600a9054906101000a900461ffff1661ffff166116fe90919063ffffffff16565b84600201600a6101000a81548161ffff021916908361ffff160217905550610f9260018460020160089054906101000a900461ffff1661ffff166116fe90919063ffffffff16565b8360020160086101000a81548161ffff021916908361ffff160217905550610fb984611724565b5b505050505050565b6000809054906101000a900473ffffffffffffffffffffffffffffffffffffffff1673ffffffffffffffffffffffffffffffffffffffff163373ffffffffffffffffffffffffffffffffffffffff1614151561101d57600080fd5b600073ffffffffffffffffffffffffffffffffffffffff168173ffffffffffffffffffffffffffffffffffffffff161415151561105957600080fd5b8073ffffffffffffffffffffffffffffffffffffffff166000809054906101000a900473ffffffffffffffffffffffffffffffffffffffff1673ffffffffffffffffffffffffffffffffffffffff167f8be0079c531659141344cd1fd0a4f28419497f9722a3daafe3b4186f6b6457e060405160405180910390a3806000806101000a81548173ffffffffffffffffffffffffffffffffffffffff021916908373ffffffffffffffffffffffffffffffffffffffff16021790555050565b60008082840190508363ffffffff168163ffffffff161015151561113757fe5b8091505092915050565b600080846005600082815260200190815260200160002060009054906101000a900473ffffffffffffffffffffffffffffffffffffffff1673ffffffffffffffffffffffffffffffffffffffff163373ffffffffffffffffffffffffffffffffffffffff161415156111b257600080fd5b6004868154811015156111c157fe5b906000526020600020906003020192506111da8361174e565b15156111e557600080fd5b600254858115156111f257fe5b06945060028584600101540181151561120757fe5b04915060405180807f6b697474790000000000000000000000000000000000000000000000000000008152506005019050604051809103902060001916846040518082805190602001908083835b60208310151561127a5780518252602082019150602081019050602083039250611255565b6001836020036101000a03801982511681845116808217855250505050505090500191505060405180910390206000191614156112c65760636064838115156112bf57fe5b0683030191505b6113056040805190810160405280600681526020017f4e6f4e616d65000000000000000000000000000000000000000000000000000081525083611398565b61130e83611724565b505050505050565b600080826040518082805190602001908083835b60208310151561134f578051825260208201915060208101905060208303925061132a565b6001836020036101000a03801982511681845116808217855250505050505090500191505060405180910390206001900490506002548181151561138f57fe5b06915050919050565b60006001600480548060010182816113b09190611827565b9160005260206000209060030201600060c060405190810160405280888152602001878152602001600163ffffffff168152602001600354420163ffffffff168152602001600061ffff168152602001600061ffff168152509091909150600082015181600001908051906020019061142a929190611859565b506020820151816001015560408201518160020160006101000a81548163ffffffff021916908363ffffffff16021790555060608201518160020160046101000a81548163ffffffff021916908363ffffffff16021790555060808201518160020160086101000a81548161ffff021916908361ffff16021790555060a082015181600201600a6101000a81548161ffff021916908361ffff1602179055505050039050336005600083815260200190815260200160002060006101000a81548173ffffffffffffffffffffffffffffffffffffffff021916908373ffffffffffffffffffffffffffffffffffffffff1602179055506115736001600660003373ffffffffffffffffffffffffffffffffffffffff1673ffffffffffffffffffffffffffffffffffffffff1681526020019081526020016000205461177590919063ffffffff16565b600660003373ffffffffffffffffffffffffffffffffffffffff1673ffffffffffffffffffffffffffffffffffffffff168152602001908152602001600020819055507f88f026aacbbecc90c18411df4b1185fd8d9be2470f1962f192bf84a27d0704b78184846040518084815260200180602001838152602001828103825284818151815260200191508051906020019080838360005b8381101561162657808201518184015260208101905061160b565b50505050905090810190601f1680156116535780820380516001836020036101000a031916815260200191505b5094505050505060405180910390a1505050565b600061167f600160095461177590919063ffffffff16565b600981905550814233600954604051808481526020018373ffffffffffffffffffffffffffffffffffffffff1673ffffffffffffffffffffffffffffffffffffffff166c0100000000000000000000000002815260140182815260200193505050506040518091039020600190048115156116f657fe5b069050919050565b60008082840190508361ffff168161ffff161015151561171a57fe5b8091505092915050565b60035442018160020160046101000a81548163ffffffff021916908363ffffffff16021790555050565b6000428260020160049054906101000a900463ffffffff1663ffffffff1611159050919050565b600080828401905083811015151561178957fe5b8091505092915050565b602060405190810160405280600081525090565b828054600181600116156101000203166002900490600052602060002090601f016020900481019282601f106117e857803560ff1916838001178555611816565b82800160010185558215611816579182015b828111156118155782358255916020019190600101906117fa565b5b50905061182391906118d9565b5090565b8154818355818115116118545760030281600302836000526020600020918201910161185391906118fe565b5b505050565b828054600181600116156101000203166002900490600052602060002090601f016020900481019282601f1061189a57805160ff19168380011785556118c8565b828001600101855582156118c8579182015b828111156118c75782518255916020019190600101906118ac565b5b5090506118d591906118d9565b5090565b6118fb91905b808211156118f75760008160009055506001016118df565b5090565b90565b61198a91905b80821115611986576000808201600061191d919061198d565b60018201600090556002820160006101000a81549063ffffffff02191690556002820160046101000a81549063ffffffff02191690556002820160086101000a81549061ffff021916905560028201600a6101000a81549061ffff021916905550600301611904565b5090565b90565b50805460018160011615610100020316600290046000825580601f106119b357506119d2565b601f0160209004906000526020600020908101906119d191906118d9565b5b505600a165627a7a723058201642d8190c861de2e010e1862f93365ffe2abb8234b68c119188e5b864bd97fc0029",
					"opcodes": "PUSH1 0x60 PUSH1 0x40 MSTORE PUSH1 0x10 PUSH1 0x1 SSTORE PUSH1 0x1 SLOAD PUSH1 0xA EXP PUSH1 0x2 SSTORE PUSH3 0x15180 PUSH1 0x3 SSTORE PUSH7 0x38D7EA4C68000 PUSH1 0x8 SSTORE PUSH1 0x0 PUSH1 0x9 SSTORE PUSH1 0x46 PUSH1 0xA SSTORE CALLER PUSH1 0x0 DUP1 PUSH2 0x100 EXP DUP2 SLOAD DUP2 PUSH20 0xFFFFFFFFFFFFFFFFFFFFFFFFFFFFFFFFFFFFFFFF MUL NOT AND SWAP1 DUP4 PUSH20 0xFFFFFFFFFFFFFFFFFFFFFFFFFFFFFFFFFFFFFFFF AND MUL OR SWAP1 SSTORE POP PUSH2 0x1A01 DUP1 PUSH2 0x7D PUSH1 0x0 CODECOPY PUSH1 0x0 RETURN STOP PUSH1 0x60 PUSH1 0x40 MSTORE PUSH1 0x4 CALLDATASIZE LT PUSH2 0xD0 JUMPI PUSH1 0x0 CALLDATALOAD PUSH29 0x100000000000000000000000000000000000000000000000000000000 SWAP1 DIV PUSH4 0xFFFFFFFF AND DUP1 PUSH4 0xCE90EC2 EQ PUSH2 0xD5 JUMPI DUP1 PUSH4 0x17A7F4CC EQ PUSH2 0xED JUMPI DUP1 PUSH4 0x2052465E EQ PUSH2 0x119 JUMPI DUP1 PUSH4 0x3CCFD60B EQ PUSH2 0x21D JUMPI DUP1 PUSH4 0x4412E104 EQ PUSH2 0x232 JUMPI DUP1 PUSH4 0x528B7B8F EQ PUSH2 0x2C0 JUMPI DUP1 PUSH4 0x5F4623F1 EQ PUSH2 0x323 JUMPI DUP1 PUSH4 0x5FAF2880 EQ PUSH2 0x35C JUMPI DUP1 PUSH4 0x7BFF0A01 EQ PUSH2 0x388 JUMPI DUP1 PUSH4 0x8DA5CB5B EQ PUSH2 0x3E5 JUMPI DUP1 PUSH4 0xC39CBEF1 EQ PUSH2 0x43A JUMPI DUP1 PUSH4 0xCCF670F8 EQ PUSH2 0x471 JUMPI DUP1 PUSH4 0xE1FA7638 EQ PUSH2 0x494 JUMPI DUP1 PUSH4 0xF2FDE38B EQ PUSH2 0x4C0 JUMPI JUMPDEST PUSH1 0x0 DUP1 REVERT JUMPDEST PUSH2 0xEB PUSH1 0x4 DUP1 DUP1 CALLDATALOAD SWAP1 PUSH1 0x20 ADD SWAP1 SWAP2 SWAP1 POP POP PUSH2 0x4F9 JUMP JUMPDEST STOP JUMPDEST CALLVALUE ISZERO PUSH2 0xF8 JUMPI PUSH1 0x0 DUP1 REVERT JUMPDEST PUSH2 0x117 PUSH1 0x4 DUP1 DUP1 CALLDATALOAD SWAP1 PUSH1 0x20 ADD SWAP1 SWAP2 SWAP1 DUP1 CALLDATALOAD SWAP1 PUSH1 0x20 ADD SWAP1 SWAP2 SWAP1 POP POP PUSH2 0x594 JUMP JUMPDEST STOP JUMPDEST CALLVALUE ISZERO PUSH2 0x124 JUMPI PUSH1 0x0 DUP1 REVERT JUMPDEST PUSH2 0x13A PUSH1 0x4 DUP1 DUP1 CALLDATALOAD SWAP1 PUSH1 0x20 ADD SWAP1 SWAP2 SWAP1 POP POP PUSH2 0x701 JUMP JUMPDEST PUSH1 0x40 MLOAD DUP1 DUP1 PUSH1 0x20 ADD DUP8 DUP2 MSTORE PUSH1 0x20 ADD DUP7 PUSH4 0xFFFFFFFF AND PUSH4 0xFFFFFFFF AND DUP2 MSTORE PUSH1 0x20 ADD DUP6 PUSH4 0xFFFFFFFF AND PUSH4 0xFFFFFFFF AND DUP2 MSTORE PUSH1 0x20 ADD DUP5 PUSH2 0xFFFF AND PUSH2 0xFFFF AND DUP2 MSTORE PUSH1 0x20 ADD DUP4 PUSH2 0xFFFF AND PUSH2 0xFFFF AND DUP2 MSTORE PUSH1 0x20 ADD DUP3 DUP2 SUB DUP3 MSTORE DUP9 DUP2 DUP2 SLOAD PUSH1 0x1 DUP2 PUSH1 0x1 AND ISZERO PUSH2 0x100 MUL SUB AND PUSH1 0x2 SWAP1 DIV DUP2 MSTORE PUSH1 0x20 ADD SWAP2 POP DUP1 SLOAD PUSH1 0x1 DUP2 PUSH1 0x1 AND ISZERO PUSH2 0x100 MUL SUB AND PUSH1 0x2 SWAP1 DIV DUP1 ISZERO PUSH2 0x209 JUMPI DUP1 PUSH1 0x1F LT PUSH2 0x1DE JUMPI PUSH2 0x100 DUP1 DUP4 SLOAD DIV MUL DUP4 MSTORE SWAP2 PUSH1 0x20 ADD SWAP2 PUSH2 0x209 JUMP JUMPDEST DUP3 ADD SWAP2 SWAP1 PUSH1 0x0 MSTORE PUSH1 0x20 PUSH1 0x0 KECCAK256 SWAP1 JUMPDEST DUP2 SLOAD DUP2 MSTORE SWAP1 PUSH1 0x1 ADD SWAP1 PUSH1 0x20 ADD DUP1 DUP4 GT PUSH2 0x1EC JUMPI DUP3 SWAP1 SUB PUSH1 0x1F AND DUP3 ADD SWAP2 JUMPDEST POP POP SWAP8 POP POP POP POP POP POP POP POP PUSH1 0x40 MLOAD DUP1 SWAP2 SUB SWAP1 RETURN JUMPDEST CALLVALUE ISZERO PUSH2 0x228 JUMPI PUSH1 0x0 DUP1 REVERT JUMPDEST PUSH2 0x230 PUSH2 0x787 JUMP JUMPDEST STOP JUMPDEST CALLVALUE ISZERO PUSH2 0x23D JUMPI PUSH1 0x0 DUP1 REVERT JUMPDEST PUSH2 0x269 PUSH1 0x4 DUP1 DUP1 CALLDATALOAD PUSH20 0xFFFFFFFFFFFFFFFFFFFFFFFFFFFFFFFFFFFFFFFF AND SWAP1 PUSH1 0x20 ADD SWAP1 SWAP2 SWAP1 POP POP PUSH2 0x85C JUMP JUMPDEST PUSH1 0x40 MLOAD DUP1 DUP1 PUSH1 0x20 ADD DUP3 DUP2 SUB DUP3 MSTORE DUP4 DUP2 DUP2 MLOAD DUP2 MSTORE PUSH1 0x20 ADD SWAP2 POP DUP1 MLOAD SWAP1 PUSH1 0x20 ADD SWAP1 PUSH1 0x20 MUL DUP1 DUP4 DUP4 PUSH1 0x0 JUMPDEST DUP4 DUP2 LT ISZERO PUSH2 0x2AC JUMPI DUP1 DUP3 ADD MLOAD DUP2 DUP5 ADD MSTORE PUSH1 0x20 DUP2 ADD SWAP1 POP PUSH2 0x291 JUMP JUMPDEST POP POP POP POP SWAP1 POP ADD SWAP3 POP POP POP PUSH1 0x40 MLOAD DUP1 SWAP2 SUB SWAP1 RETURN JUMPDEST CALLVALUE ISZERO PUSH2 0x2CB JUMPI PUSH1 0x0 DUP1 REVERT JUMPDEST PUSH2 0x2E1 PUSH1 0x4 DUP1 DUP1 CALLDATALOAD SWAP1 PUSH1 0x20 ADD SWAP1 SWAP2 SWAP1 POP POP PUSH2 0x98A JUMP JUMPDEST PUSH1 0x40 MLOAD DUP1 DUP3 PUSH20 0xFFFFFFFFFFFFFFFFFFFFFFFFFFFFFFFFFFFFFFFF AND PUSH20 0xFFFFFFFFFFFFFFFFFFFFFFFFFFFFFFFFFFFFFFFF AND DUP2 MSTORE PUSH1 0x20 ADD SWAP2 POP POP PUSH1 0x40 MLOAD DUP1 SWAP2 SUB SWAP1 RETURN JUMPDEST CALLVALUE ISZERO PUSH2 0x32E JUMPI PUSH1 0x0 DUP1 REVERT JUMPDEST PUSH2 0x35A PUSH1 0x4 DUP1 DUP1 CALLDATALOAD PUSH20 0xFFFFFFFFFFFFFFFFFFFFFFFFFFFFFFFFFFFFFFFF AND SWAP1 PUSH1 0x20 ADD SWAP1 SWAP2 SWAP1 POP POP PUSH2 0x9BD JUMP JUMPDEST STOP JUMPDEST CALLVALUE ISZERO PUSH2 0x367 JUMPI PUSH1 0x0 DUP1 REVERT JUMPDEST PUSH2 0x386 PUSH1 0x4 DUP1 DUP1 CALLDATALOAD SWAP1 PUSH1 0x20 ADD SWAP1 SWAP2 SWAP1 DUP1 CALLDATALOAD SWAP1 PUSH1 0x20 ADD SWAP1 SWAP2 SWAP1 POP POP PUSH2 0xA5C JUMP JUMPDEST STOP JUMPDEST CALLVALUE ISZERO PUSH2 0x393 JUMPI PUSH1 0x0 DUP1 REVERT JUMPDEST PUSH2 0x3E3 PUSH1 0x4 DUP1 DUP1 CALLDATALOAD SWAP1 PUSH1 0x20 ADD SWAP1 DUP3 ADD DUP1 CALLDATALOAD SWAP1 PUSH1 0x20 ADD SWAP1 DUP1 DUP1 PUSH1 0x1F ADD PUSH1 0x20 DUP1 SWAP2 DIV MUL PUSH1 0x20 ADD PUSH1 0x40 MLOAD SWAP1 DUP2 ADD PUSH1 0x40 MSTORE DUP1 SWAP4 SWAP3 SWAP2 SWAP1 DUP2 DUP2 MSTORE PUSH1 0x20 ADD DUP4 DUP4 DUP1 DUP3 DUP5 CALLDATACOPY DUP3 ADD SWAP2 POP POP POP POP POP POP SWAP2 SWAP1 POP POP PUSH2 0xB3E JUMP JUMPDEST STOP JUMPDEST CALLVALUE ISZERO PUSH2 0x3F0 JUMPI PUSH1 0x0 DUP1 REVERT JUMPDEST PUSH2 0x3F8 PUSH2 0xBB7 JUMP JUMPDEST PUSH1 0x40 MLOAD DUP1 DUP3 PUSH20 0xFFFFFFFFFFFFFFFFFFFFFFFFFFFFFFFFFFFFFFFF AND PUSH20 0xFFFFFFFFFFFFFFFFFFFFFFFFFFFFFFFFFFFFFFFF AND DUP2 MSTORE PUSH1 0x20 ADD SWAP2 POP POP PUSH1 0x40 MLOAD DUP1 SWAP2 SUB SWAP1 RETURN JUMPDEST CALLVALUE ISZERO PUSH2 0x445 JUMPI PUSH1 0x0 DUP1 REVERT JUMPDEST PUSH2 0x46F PUSH1 0x4 DUP1 DUP1 CALLDATALOAD SWAP1 PUSH1 0x20 ADD SWAP1 SWAP2 SWAP1 DUP1 CALLDATALOAD SWAP1 PUSH1 0x20 ADD SWAP1 DUP3 ADD DUP1 CALLDATALOAD SWAP1 PUSH1 0x20 ADD SWAP2 SWAP1 SWAP2 SWAP3 SWAP1 POP POP PUSH2 0xBDC JUMP JUMPDEST STOP JUMPDEST CALLVALUE ISZERO PUSH2 0x47C JUMPI PUSH1 0x0 DUP1 REVERT JUMPDEST PUSH2 0x492 PUSH1 0x4 DUP1 DUP1 CALLDATALOAD SWAP1 PUSH1 0x20 ADD SWAP1 SWAP2 SWAP1 POP POP PUSH2 0xCCA JUMP JUMPDEST STOP JUMPDEST CALLVALUE ISZERO PUSH2 0x49F JUMPI PUSH1 0x0 DUP1 REVERT JUMPDEST PUSH2 0x4BE PUSH1 0x4 DUP1 DUP1 CALLDATALOAD SWAP1 PUSH1 0x20 ADD SWAP1 SWAP2 SWAP1 DUP1 CALLDATALOAD SWAP1 PUSH1 0x20 ADD SWAP1 SWAP2 SWAP1 POP POP PUSH2 0xD2F JUMP JUMPDEST STOP JUMPDEST CALLVALUE ISZERO PUSH2 0x4CB JUMPI PUSH1 0x0 DUP1 REVERT JUMPDEST PUSH2 0x4F7 PUSH1 0x4 DUP1 DUP1 CALLDATALOAD PUSH20 0xFFFFFFFFFFFFFFFFFFFFFFFFFFFFFFFFFFFFFFFF AND SWAP1 PUSH1 0x20 ADD SWAP1 SWAP2 SWAP1 POP POP PUSH2 0xFC2 JUMP JUMPDEST STOP JUMPDEST PUSH1 0x8 SLOAD CALLVALUE EQ ISZERO ISZERO PUSH2 0x509 JUMPI PUSH1 0x0 DUP1 REVERT JUMPDEST PUSH2 0x553 PUSH1 0x1 PUSH1 0x4 DUP4 DUP2 SLOAD DUP2 LT ISZERO ISZERO PUSH2 0x51D JUMPI INVALID JUMPDEST SWAP1 PUSH1 0x0 MSTORE PUSH1 0x20 PUSH1 0x0 KECCAK256 SWAP1 PUSH1 0x3 MUL ADD PUSH1 0x2 ADD PUSH1 0x0 SWAP1 SLOAD SWAP1 PUSH2 0x100 EXP SWAP1 DIV PUSH4 0xFFFFFFFF AND PUSH4 0xFFFFFFFF AND PUSH2 0x1117 SWAP1 SWAP2 SWAP1 PUSH4 0xFFFFFFFF AND JUMP JUMPDEST PUSH1 0x4 DUP3 DUP2 SLOAD DUP2 LT ISZERO ISZERO PUSH2 0x562 JUMPI INVALID JUMPDEST SWAP1 PUSH1 0x0 MSTORE PUSH1 0x20 PUSH1 0x0 KECCAK256 SWAP1 PUSH1 0x3 MUL ADD PUSH1 0x2 ADD PUSH1 0x0 PUSH2 0x100 EXP DUP2 SLOAD DUP2 PUSH4 0xFFFFFFFF MUL NOT AND SWAP1 DUP4 PUSH4 0xFFFFFFFF AND MUL OR SWAP1 SSTORE POP POP JUMP JUMPDEST PUSH1 0x0 PUSH1 0x7 PUSH1 0x0 SWAP1 SLOAD SWAP1 PUSH2 0x100 EXP SWAP1 DIV PUSH20 0xFFFFFFFFFFFFFFFFFFFFFFFFFFFFFFFFFFFFFFFF AND PUSH20 0xFFFFFFFFFFFFFFFFFFFFFFFFFFFFFFFFFFFFFFFF AND PUSH4 0xE98B7F4D DUP4 PUSH1 0x0 PUSH1 0x40 MLOAD PUSH2 0x140 ADD MSTORE PUSH1 0x40 MLOAD DUP3 PUSH4 0xFFFFFFFF AND PUSH29 0x100000000000000000000000000000000000000000000000000000000 MUL DUP2 MSTORE PUSH1 0x4 ADD DUP1 DUP3 DUP2 MSTORE PUSH1 0x20 ADD SWAP2 POP POP PUSH2 0x140 PUSH1 0x40 MLOAD DUP1 DUP4 SUB DUP2 PUSH1 0x0 DUP8 DUP1 EXTCODESIZE ISZERO ISZERO PUSH2 0x631 JUMPI PUSH1 0x0 DUP1 REVERT JUMPDEST PUSH2 0x2C6 GAS SUB CALL ISZERO ISZERO PUSH2 0x642 JUMPI PUSH1 0x0 DUP1 REVERT JUMPDEST POP POP POP PUSH1 0x40 MLOAD DUP1 MLOAD SWAP1 PUSH1 0x20 ADD DUP1 MLOAD SWAP1 PUSH1 0x20 ADD DUP1 MLOAD SWAP1 PUSH1 0x20 ADD DUP1 MLOAD SWAP1 PUSH1 0x20 ADD DUP1 MLOAD SWAP1 PUSH1 0x20 ADD DUP1 MLOAD SWAP1 PUSH1 0x20 ADD DUP1 MLOAD SWAP1 PUSH1 0x20 ADD DUP1 MLOAD SWAP1 PUSH1 0x20 ADD DUP1 MLOAD SWAP1 PUSH1 0x20 ADD DUP1 MLOAD SWAP1 POP SWAP1 SWAP2 SWAP3 SWAP4 SWAP5 SWAP6 SWAP7 SWAP8 SWAP9 POP SWAP1 SWAP2 SWAP3 SWAP4 SWAP5 SWAP6 SWAP7 SWAP8 POP SWAP1 SWAP2 SWAP3 SWAP4 SWAP5 SWAP6 SWAP7 POP SWAP1 SWAP2 SWAP3 SWAP4 SWAP5 SWAP6 POP SWAP1 SWAP2 SWAP3 SWAP4 SWAP5 POP SWAP1 SWAP2 SWAP3 SWAP4 POP SWAP1 SWAP2 SWAP3 POP SWAP1 SWAP2 POP SWAP1 POP DUP1 SWAP2 POP POP PUSH2 0x6FC DUP4 DUP3 PUSH1 0x40 DUP1 MLOAD SWAP1 DUP2 ADD PUSH1 0x40 MSTORE DUP1 PUSH1 0x5 DUP2 MSTORE PUSH1 0x20 ADD PUSH32 0x6B69747479000000000000000000000000000000000000000000000000000000 DUP2 MSTORE POP PUSH2 0x1141 JUMP JUMPDEST POP POP POP JUMP JUMPDEST PUSH1 0x4 DUP2 DUP2 SLOAD DUP2 LT ISZERO ISZERO PUSH2 0x710 JUMPI INVALID JUMPDEST SWAP1 PUSH1 0x0 MSTORE PUSH1 0x20 PUSH1 0x0 KECCAK256 SWAP1 PUSH1 0x3 MUL ADD PUSH1 0x0 SWAP2 POP SWAP1 POP DUP1 PUSH1 0x0 ADD SWAP1 DUP1 PUSH1 0x1 ADD SLOAD SWAP1 DUP1 PUSH1 0x2 ADD PUSH1 0x0 SWAP1 SLOAD SWAP1 PUSH2 0x100 EXP SWAP1 DIV PUSH4 0xFFFFFFFF AND SWAP1 DUP1 PUSH1 0x2 ADD PUSH1 0x4 SWAP1 SLOAD SWAP1 PUSH2 0x100 EXP SWAP1 DIV PUSH4 0xFFFFFFFF AND SWAP1 DUP1 PUSH1 0x2 ADD PUSH1 0x8 SWAP1 SLOAD SWAP1 PUSH2 0x100 EXP SWAP1 DIV PUSH2 0xFFFF AND SWAP1 DUP1 PUSH1 0x2 ADD PUSH1 0xA SWAP1 SLOAD SWAP1 PUSH2 0x100 EXP SWAP1 DIV PUSH2 0xFFFF AND SWAP1 POP DUP7 JUMP JUMPDEST PUSH1 0x0 DUP1 SWAP1 SLOAD SWAP1 PUSH2 0x100 EXP SWAP1 DIV PUSH20 0xFFFFFFFFFFFFFFFFFFFFFFFFFFFFFFFFFFFFFFFF AND PUSH20 0xFFFFFFFFFFFFFFFFFFFFFFFFFFFFFFFFFFFFFFFF AND CALLER PUSH20 0xFFFFFFFFFFFFFFFFFFFFFFFFFFFFFFFFFFFFFFFF AND EQ ISZERO ISZERO PUSH2 0x7E2 JUMPI PUSH1 0x0 DUP1 REVERT JUMPDEST PUSH1 0x0 DUP1 SWAP1 SLOAD SWAP1 PUSH2 0x100 EXP SWAP1 DIV PUSH20 0xFFFFFFFFFFFFFFFFFFFFFFFFFFFFFFFFFFFFFFFF AND PUSH20 0xFFFFFFFFFFFFFFFFFFFFFFFFFFFFFFFFFFFFFFFF AND PUSH2 0x8FC ADDRESS PUSH20 0xFFFFFFFFFFFFFFFFFFFFFFFFFFFFFFFFFFFFFFFF AND BALANCE SWAP1 DUP2 ISZERO MUL SWAP1 PUSH1 0x40 MLOAD PUSH1 0x0 PUSH1 0x40 MLOAD DUP1 DUP4 SUB DUP2 DUP6 DUP9 DUP9 CALL SWAP4 POP POP POP POP ISZERO ISZERO PUSH2 0x85A JUMPI PUSH1 0x0 DUP1 REVERT JUMPDEST JUMP JUMPDEST PUSH2 0x864 PUSH2 0x1793 JUMP JUMPDEST PUSH2 0x86C PUSH2 0x1793 JUMP JUMPDEST PUSH1 0x0 DUP1 PUSH1 0x6 PUSH1 0x0 DUP7 PUSH20 0xFFFFFFFFFFFFFFFFFFFFFFFFFFFFFFFFFFFFFFFF AND PUSH20 0xFFFFFFFFFFFFFFFFFFFFFFFFFFFFFFFFFFFFFFFF AND DUP2 MSTORE PUSH1 0x20 ADD SWAP1 DUP2 MSTORE PUSH1 0x20 ADD PUSH1 0x0 KECCAK256 SLOAD PUSH1 0x40 MLOAD DUP1 MSIZE LT PUSH2 0x8BC JUMPI POP MSIZE JUMPDEST SWAP1 DUP1 DUP3 MSTORE DUP1 PUSH1 0x20 MUL PUSH1 0x20 ADD DUP3 ADD PUSH1 0x40 MSTORE POP SWAP3 POP PUSH1 0x0 SWAP2 POP PUSH1 0x0 SWAP1 POP JUMPDEST PUSH1 0x4 DUP1 SLOAD SWAP1 POP DUP2 LT ISZERO PUSH2 0x97F JUMPI DUP5 PUSH20 0xFFFFFFFFFFFFFFFFFFFFFFFFFFFFFFFFFFFFFFFF AND PUSH1 0x5 PUSH1 0x0 DUP4 DUP2 MSTORE PUSH1 0x20 ADD SWAP1 DUP2 MSTORE PUSH1 0x20 ADD PUSH1 0x0 KECCAK256 PUSH1 0x0 SWAP1 SLOAD SWAP1 PUSH2 0x100 EXP SWAP1 DIV PUSH20 0xFFFFFFFFFFFFFFFFFFFFFFFFFFFFFFFFFFFFFFFF AND PUSH20 0xFFFFFFFFFFFFFFFFFFFFFFFFFFFFFFFFFFFFFFFF AND EQ ISZERO PUSH2 0x972 JUMPI DUP1 DUP4 DUP4 DUP2 MLOAD DUP2 LT ISZERO ISZERO PUSH2 0x95B JUMPI INVALID JUMPDEST SWAP1 PUSH1 0x20 ADD SWAP1 PUSH1 0x20 MUL ADD DUP2 DUP2 MSTORE POP POP DUP2 DUP1 PUSH1 0x1 ADD SWAP3 POP POP JUMPDEST DUP1 DUP1 PUSH1 0x1 ADD SWAP2 POP POP PUSH2 0x8D8 JUMP JUMPDEST DUP3 SWAP4 POP POP POP POP SWAP2 SWAP1 POP JUMP JUMPDEST PUSH1 0x5 PUSH1 0x20 MSTORE DUP1 PUSH1 0x0 MSTORE PUSH1 0x40 PUSH1 0x0 KECCAK256 PUSH1 0x0 SWAP2 POP SLOAD SWAP1 PUSH2 0x100 EXP SWAP1 DIV PUSH20 0xFFFFFFFFFFFFFFFFFFFFFFFFFFFFFFFFFFFFFFFF AND DUP2 JUMP JUMPDEST PUSH1 0x0 DUP1 SWAP1 SLOAD SWAP1 PUSH2 0x100 EXP SWAP1 DIV PUSH20 0xFFFFFFFFFFFFFFFFFFFFFFFFFFFFFFFFFFFFFFFF AND PUSH20 0xFFFFFFFFFFFFFFFFFFFFFFFFFFFFFFFFFFFFFFFF AND CALLER PUSH20 0xFFFFFFFFFFFFFFFFFFFFFFFFFFFFFFFFFFFFFFFF AND EQ ISZERO ISZERO PUSH2 0xA18 JUMPI PUSH1 0x0 DUP1 REVERT JUMPDEST DUP1 PUSH1 0x7 PUSH1 0x0 PUSH2 0x100 EXP DUP2 SLOAD DUP2 PUSH20 0xFFFFFFFFFFFFFFFFFFFFFFFFFFFFFFFFFFFFFFFF MUL NOT AND SWAP1 DUP4 PUSH20 0xFFFFFFFFFFFFFFFFFFFFFFFFFFFFFFFFFFFFFFFF AND MUL OR SWAP1 SSTORE POP POP JUMP JUMPDEST PUSH1 0x14 DUP3 DUP2 PUSH1 0x4 DUP3 DUP2 SLOAD DUP2 LT ISZERO ISZERO PUSH2 0xA6F JUMPI INVALID JUMPDEST SWAP1 PUSH1 0x0 MSTORE PUSH1 0x20 PUSH1 0x0 KECCAK256 SWAP1 PUSH1 0x3 MUL ADD PUSH1 0x2 ADD PUSH1 0x0 SWAP1 SLOAD SWAP1 PUSH2 0x100 EXP SWAP1 DIV PUSH4 0xFFFFFFFF AND PUSH4 0xFFFFFFFF AND LT ISZERO ISZERO ISZERO PUSH2 0xAA4 JUMPI PUSH1 0x0 DUP1 REVERT JUMPDEST DUP4 PUSH1 0x5 PUSH1 0x0 DUP3 DUP2 MSTORE PUSH1 0x20 ADD SWAP1 DUP2 MSTORE PUSH1 0x20 ADD PUSH1 0x0 KECCAK256 PUSH1 0x0 SWAP1 SLOAD SWAP1 PUSH2 0x100 EXP SWAP1 DIV PUSH20 0xFFFFFFFFFFFFFFFFFFFFFFFFFFFFFFFFFFFFFFFF AND PUSH20 0xFFFFFFFFFFFFFFFFFFFFFFFFFFFFFFFFFFFFFFFF AND CALLER PUSH20 0xFFFFFFFFFFFFFFFFFFFFFFFFFFFFFFFFFFFFFFFF AND EQ ISZERO ISZERO PUSH2 0xB12 JUMPI PUSH1 0x0 DUP1 REVERT JUMPDEST DUP4 PUSH1 0x4 DUP7 DUP2 SLOAD DUP2 LT ISZERO ISZERO PUSH2 0xB22 JUMPI INVALID JUMPDEST SWAP1 PUSH1 0x0 MSTORE PUSH1 0x20 PUSH1 0x0 KECCAK256 SWAP1 PUSH1 0x3 MUL ADD PUSH1 0x1 ADD DUP2 SWAP1 SSTORE POP POP POP POP POP POP JUMP JUMPDEST PUSH1 0x0 DUP1 PUSH1 0x6 PUSH1 0x0 CALLER PUSH20 0xFFFFFFFFFFFFFFFFFFFFFFFFFFFFFFFFFFFFFFFF AND PUSH20 0xFFFFFFFFFFFFFFFFFFFFFFFFFFFFFFFFFFFFFFFF AND DUP2 MSTORE PUSH1 0x20 ADD SWAP1 DUP2 MSTORE PUSH1 0x20 ADD PUSH1 0x0 KECCAK256 SLOAD EQ ISZERO ISZERO PUSH2 0xB8D JUMPI PUSH1 0x0 DUP1 REVERT JUMPDEST PUSH2 0xB96 DUP3 PUSH2 0x1316 JUMP JUMPDEST SWAP1 POP PUSH1 0x64 DUP2 DUP2 ISZERO ISZERO PUSH2 0xBA4 JUMPI INVALID JUMPDEST MOD DUP2 SUB SWAP1 POP PUSH2 0xBB3 DUP3 DUP3 PUSH2 0x1398 JUMP JUMPDEST POP POP JUMP JUMPDEST PUSH1 0x0 DUP1 SWAP1 SLOAD SWAP1 PUSH2 0x100 EXP SWAP1 DIV PUSH20 0xFFFFFFFFFFFFFFFFFFFFFFFFFFFFFFFFFFFFFFFF AND DUP2 JUMP JUMPDEST PUSH1 0x2 DUP4 DUP2 PUSH1 0x4 DUP3 DUP2 SLOAD DUP2 LT ISZERO ISZERO PUSH2 0xBEF JUMPI INVALID JUMPDEST SWAP1 PUSH1 0x0 MSTORE PUSH1 0x20 PUSH1 0x0 KECCAK256 SWAP1 PUSH1 0x3 MUL ADD PUSH1 0x2 ADD PUSH1 0x0 SWAP1 SLOAD SWAP1 PUSH2 0x100 EXP SWAP1 DIV PUSH4 0xFFFFFFFF AND PUSH4 0xFFFFFFFF AND LT ISZERO ISZERO ISZERO PUSH2 0xC24 JUMPI PUSH1 0x0 DUP1 REVERT JUMPDEST DUP5 PUSH1 0x5 PUSH1 0x0 DUP3 DUP2 MSTORE PUSH1 0x20 ADD SWAP1 DUP2 MSTORE PUSH1 0x20 ADD PUSH1 0x0 KECCAK256 PUSH1 0x0 SWAP1 SLOAD SWAP1 PUSH2 0x100 EXP SWAP1 DIV PUSH20 0xFFFFFFFFFFFFFFFFFFFFFFFFFFFFFFFFFFFFFFFF AND PUSH20 0xFFFFFFFFFFFFFFFFFFFFFFFFFFFFFFFFFFFFFFFF AND CALLER PUSH20 0xFFFFFFFFFFFFFFFFFFFFFFFFFFFFFFFFFFFFFFFF AND EQ ISZERO ISZERO PUSH2 0xC92 JUMPI PUSH1 0x0 DUP1 REVERT JUMPDEST DUP5 DUP5 PUSH1 0x4 DUP9 DUP2 SLOAD DUP2 LT ISZERO ISZERO PUSH2 0xCA3 JUMPI INVALID JUMPDEST SWAP1 PUSH1 0x0 MSTORE PUSH1 0x20 PUSH1 0x0 KECCAK256 SWAP1 PUSH1 0x3 MUL ADD PUSH1 0x0 ADD SWAP2 SWAP1 PUSH2 0xCC1 SWAP3 SWAP2 SWAP1 PUSH2 0x17A7 JUMP JUMPDEST POP POP POP POP POP POP POP JUMP JUMPDEST PUSH1 0x0 DUP1 SWAP1 SLOAD SWAP1 PUSH2 0x100 EXP SWAP1 DIV PUSH20 0xFFFFFFFFFFFFFFFFFFFFFFFFFFFFFFFFFFFFFFFF AND PUSH20 0xFFFFFFFFFFFFFFFFFFFFFFFFFFFFFFFFFFFFFFFF AND CALLER PUSH20 0xFFFFFFFFFFFFFFFFFFFFFFFFFFFFFFFFFFFFFFFF AND EQ ISZERO ISZERO PUSH2 0xD25 JUMPI PUSH1 0x0 DUP1 REVERT JUMPDEST DUP1 PUSH1 0x8 DUP2 SWAP1 SSTORE POP POP JUMP JUMPDEST PUSH1 0x0 DUP1 PUSH1 0x0 DUP5 PUSH1 0x5 PUSH1 0x0 DUP3 DUP2 MSTORE PUSH1 0x20 ADD SWAP1 DUP2 MSTORE PUSH1 0x20 ADD PUSH1 0x0 KECCAK256 PUSH1 0x0 SWAP1 SLOAD SWAP1 PUSH2 0x100 EXP SWAP1 DIV PUSH20 0xFFFFFFFFFFFFFFFFFFFFFFFFFFFFFFFFFFFFFFFF AND PUSH20 0xFFFFFFFFFFFFFFFFFFFFFFFFFFFFFFFFFFFFFFFF AND CALLER PUSH20 0xFFFFFFFFFFFFFFFFFFFFFFFFFFFFFFFFFFFFFFFF AND EQ ISZERO ISZERO PUSH2 0xDA2 JUMPI PUSH1 0x0 DUP1 REVERT JUMPDEST PUSH1 0x4 DUP7 DUP2 SLOAD DUP2 LT ISZERO ISZERO PUSH2 0xDB1 JUMPI INVALID JUMPDEST SWAP1 PUSH1 0x0 MSTORE PUSH1 0x20 PUSH1 0x0 KECCAK256 SWAP1 PUSH1 0x3 MUL ADD SWAP4 POP PUSH1 0x4 DUP6 DUP2 SLOAD DUP2 LT ISZERO ISZERO PUSH2 0xDD0 JUMPI INVALID JUMPDEST SWAP1 PUSH1 0x0 MSTORE PUSH1 0x20 PUSH1 0x0 KECCAK256 SWAP1 PUSH1 0x3 MUL ADD SWAP3 POP PUSH2 0xDEA PUSH1 0x64 PUSH2 0x1667 JUMP JUMPDEST SWAP2 POP PUSH1 0xA SLOAD DUP3 GT ISZERO ISZERO PUSH2 0xF20 JUMPI PUSH2 0xE21 PUSH1 0x1 DUP6 PUSH1 0x2 ADD PUSH1 0x8 SWAP1 SLOAD SWAP1 PUSH2 0x100 EXP SWAP1 DIV PUSH2 0xFFFF AND PUSH2 0xFFFF AND PUSH2 0x16FE SWAP1 SWAP2 SWAP1 PUSH4 0xFFFFFFFF AND JUMP JUMPDEST DUP5 PUSH1 0x2 ADD PUSH1 0x8 PUSH2 0x100 EXP DUP2 SLOAD DUP2 PUSH2 0xFFFF MUL NOT AND SWAP1 DUP4 PUSH2 0xFFFF AND MUL OR SWAP1 SSTORE POP PUSH2 0xE6D PUSH1 0x1 DUP6 PUSH1 0x2 ADD PUSH1 0x0 SWAP1 SLOAD SWAP1 PUSH2 0x100 EXP SWAP1 DIV PUSH4 0xFFFFFFFF AND PUSH4 0xFFFFFFFF AND PUSH2 0x1117 SWAP1 SWAP2 SWAP1 PUSH4 0xFFFFFFFF AND JUMP JUMPDEST DUP5 PUSH1 0x2 ADD PUSH1 0x0 PUSH2 0x100 EXP DUP2 SLOAD DUP2 PUSH4 0xFFFFFFFF MUL NOT AND SWAP1 DUP4 PUSH4 0xFFFFFFFF AND MUL OR SWAP1 SSTORE POP PUSH2 0xEB9 PUSH1 0x1 DUP5 PUSH1 0x2 ADD PUSH1 0xA SWAP1 SLOAD SWAP1 PUSH2 0x100 EXP SWAP1 DIV PUSH2 0xFFFF AND PUSH2 0xFFFF AND PUSH2 0x16FE SWAP1 SWAP2 SWAP1 PUSH4 0xFFFFFFFF AND JUMP JUMPDEST DUP4 PUSH1 0x2 ADD PUSH1 0xA PUSH2 0x100 EXP DUP2 SLOAD DUP2 PUSH2 0xFFFF MUL NOT AND SWAP1 DUP4 PUSH2 0xFFFF AND MUL OR SWAP1 SSTORE POP PUSH2 0xF1B DUP7 DUP5 PUSH1 0x1 ADD SLOAD PUSH1 0x40 DUP1 MLOAD SWAP1 DUP2 ADD PUSH1 0x40 MSTORE DUP1 PUSH1 0x6 DUP2 MSTORE PUSH1 0x20 ADD PUSH32 0x7A6F6D6269650000000000000000000000000000000000000000000000000000 DUP2 MSTORE POP PUSH2 0x1141 JUMP JUMPDEST PUSH2 0xFBA JUMP JUMPDEST PUSH2 0xF4A PUSH1 0x1 DUP6 PUSH1 0x2 ADD PUSH1 0xA SWAP1 SLOAD SWAP1 PUSH2 0x100 EXP SWAP1 DIV PUSH2 0xFFFF AND PUSH2 0xFFFF AND PUSH2 0x16FE SWAP1 SWAP2 SWAP1 PUSH4 0xFFFFFFFF AND JUMP JUMPDEST DUP5 PUSH1 0x2 ADD PUSH1 0xA PUSH2 0x100 EXP DUP2 SLOAD DUP2 PUSH2 0xFFFF MUL NOT AND SWAP1 DUP4 PUSH2 0xFFFF AND MUL OR SWAP1 SSTORE POP PUSH2 0xF92 PUSH1 0x1 DUP5 PUSH1 0x2 ADD PUSH1 0x8 SWAP1 SLOAD SWAP1 PUSH2 0x100 EXP SWAP1 DIV PUSH2 0xFFFF AND PUSH2 0xFFFF AND PUSH2 0x16FE SWAP1 SWAP2 SWAP1 PUSH4 0xFFFFFFFF AND JUMP JUMPDEST DUP4 PUSH1 0x2 ADD PUSH1 0x8 PUSH2 0x100 EXP DUP2 SLOAD DUP2 PUSH2 0xFFFF MUL NOT AND SWAP1 DUP4 PUSH2 0xFFFF AND MUL OR SWAP1 SSTORE POP PUSH2 0xFB9 DUP5 PUSH2 0x1724 JUMP JUMPDEST JUMPDEST POP POP POP POP POP POP JUMP JUMPDEST PUSH1 0x0 DUP1 SWAP1 SLOAD SWAP1 PUSH2 0x100 EXP SWAP1 DIV PUSH20 0xFFFFFFFFFFFFFFFFFFFFFFFFFFFFFFFFFFFFFFFF AND PUSH20 0xFFFFFFFFFFFFFFFFFFFFFFFFFFFFFFFFFFFFFFFF AND CALLER PUSH20 0xFFFFFFFFFFFFFFFFFFFFFFFFFFFFFFFFFFFFFFFF AND EQ ISZERO ISZERO PUSH2 0x101D JUMPI PUSH1 0x0 DUP1 REVERT JUMPDEST PUSH1 0x0 PUSH20 0xFFFFFFFFFFFFFFFFFFFFFFFFFFFFFFFFFFFFFFFF AND DUP2 PUSH20 0xFFFFFFFFFFFFFFFFFFFFFFFFFFFFFFFFFFFFFFFF AND EQ ISZERO ISZERO ISZERO PUSH2 0x1059 JUMPI PUSH1 0x0 DUP1 REVERT JUMPDEST DUP1 PUSH20 0xFFFFFFFFFFFFFFFFFFFFFFFFFFFFFFFFFFFFFFFF AND PUSH1 0x0 DUP1 SWAP1 SLOAD SWAP1 PUSH2 0x100 EXP SWAP1 DIV PUSH20 0xFFFFFFFFFFFFFFFFFFFFFFFFFFFFFFFFFFFFFFFF AND PUSH20 0xFFFFFFFFFFFFFFFFFFFFFFFFFFFFFFFFFFFFFFFF AND PUSH32 0x8BE0079C531659141344CD1FD0A4F28419497F9722A3DAAFE3B4186F6B6457E0 PUSH1 0x40 MLOAD PUSH1 0x40 MLOAD DUP1 SWAP2 SUB SWAP1 LOG3 DUP1 PUSH1 0x0 DUP1 PUSH2 0x100 EXP DUP2 SLOAD DUP2 PUSH20 0xFFFFFFFFFFFFFFFFFFFFFFFFFFFFFFFFFFFFFFFF MUL NOT AND SWAP1 DUP4 PUSH20 0xFFFFFFFFFFFFFFFFFFFFFFFFFFFFFFFFFFFFFFFF AND MUL OR SWAP1 SSTORE POP POP JUMP JUMPDEST PUSH1 0x0 DUP1 DUP3 DUP5 ADD SWAP1 POP DUP4 PUSH4 0xFFFFFFFF AND DUP2 PUSH4 0xFFFFFFFF AND LT ISZERO ISZERO ISZERO PUSH2 0x1137 JUMPI INVALID JUMPDEST DUP1 SWAP2 POP POP SWAP3 SWAP2 POP POP JUMP JUMPDEST PUSH1 0x0 DUP1 DUP5 PUSH1 0x5 PUSH1 0x0 DUP3 DUP2 MSTORE PUSH1 0x20 ADD SWAP1 DUP2 MSTORE PUSH1 0x20 ADD PUSH1 0x0 KECCAK256 PUSH1 0x0 SWAP1 SLOAD SWAP1 PUSH2 0x100 EXP SWAP1 DIV PUSH20 0xFFFFFFFFFFFFFFFFFFFFFFFFFFFFFFFFFFFFFFFF AND PUSH20 0xFFFFFFFFFFFFFFFFFFFFFFFFFFFFFFFFFFFFFFFF AND CALLER PUSH20 0xFFFFFFFFFFFFFFFFFFFFFFFFFFFFFFFFFFFFFFFF AND EQ ISZERO ISZERO PUSH2 0x11B2 JUMPI PUSH1 0x0 DUP1 REVERT JUMPDEST PUSH1 0x4 DUP7 DUP2 SLOAD DUP2 LT ISZERO ISZERO PUSH2 0x11C1 JUMPI INVALID JUMPDEST SWAP1 PUSH1 0x0 MSTORE PUSH1 0x20 PUSH1 0x0 KECCAK256 SWAP1 PUSH1 0x3 MUL ADD SWAP3 POP PUSH2 0x11DA DUP4 PUSH2 0x174E JUMP JUMPDEST ISZERO ISZERO PUSH2 0x11E5 JUMPI PUSH1 0x0 DUP1 REVERT JUMPDEST PUSH1 0x2 SLOAD DUP6 DUP2 ISZERO ISZERO PUSH2 0x11F2 JUMPI INVALID JUMPDEST MOD SWAP5 POP PUSH1 0x2 DUP6 DUP5 PUSH1 0x1 ADD SLOAD ADD DUP2 ISZERO ISZERO PUSH2 0x1207 JUMPI INVALID JUMPDEST DIV SWAP2 POP PUSH1 0x40 MLOAD DUP1 DUP1 PUSH32 0x6B69747479000000000000000000000000000000000000000000000000000000 DUP2 MSTORE POP PUSH1 0x5 ADD SWAP1 POP PUSH1 0x40 MLOAD DUP1 SWAP2 SUB SWAP1 KECCAK256 PUSH1 0x0 NOT AND DUP5 PUSH1 0x40 MLOAD DUP1 DUP3 DUP1 MLOAD SWAP1 PUSH1 0x20 ADD SWAP1 DUP1 DUP4 DUP4 JUMPDEST PUSH1 0x20 DUP4 LT ISZERO ISZERO PUSH2 0x127A JUMPI DUP1 MLOAD DUP3 MSTORE PUSH1 0x20 DUP3 ADD SWAP2 POP PUSH1 0x20 DUP2 ADD SWAP1 POP PUSH1 0x20 DUP4 SUB SWAP3 POP PUSH2 0x1255 JUMP JUMPDEST PUSH1 0x1 DUP4 PUSH1 0x20 SUB PUSH2 0x100 EXP SUB DUP1 NOT DUP3 MLOAD AND DUP2 DUP5 MLOAD AND DUP1 DUP3 OR DUP6 MSTORE POP POP POP POP POP POP SWAP1 POP ADD SWAP2 POP POP PUSH1 0x40 MLOAD DUP1 SWAP2 SUB SWAP1 KECCAK256 PUSH1 0x0 NOT AND EQ ISZERO PUSH2 0x12C6 JUMPI PUSH1 0x63 PUSH1 0x64 DUP4 DUP2 ISZERO ISZERO PUSH2 0x12BF JUMPI INVALID JUMPDEST MOD DUP4 SUB ADD SWAP2 POP JUMPDEST PUSH2 0x1305 PUSH1 0x40 DUP1 MLOAD SWAP1 DUP2 ADD PUSH1 0x40 MSTORE DUP1 PUSH1 0x6 DUP2 MSTORE PUSH1 0x20 ADD PUSH32 0x4E6F4E616D650000000000000000000000000000000000000000000000000000 DUP2 MSTORE POP DUP4 PUSH2 0x1398 JUMP JUMPDEST PUSH2 0x130E DUP4 PUSH2 0x1724 JUMP JUMPDEST POP POP POP POP POP POP JUMP JUMPDEST PUSH1 0x0 DUP1 DUP3 PUSH1 0x40 MLOAD DUP1 DUP3 DUP1 MLOAD SWAP1 PUSH1 0x20 ADD SWAP1 DUP1 DUP4 DUP4 JUMPDEST PUSH1 0x20 DUP4 LT ISZERO ISZERO PUSH2 0x134F JUMPI DUP1 MLOAD DUP3 MSTORE PUSH1 0x20 DUP3 ADD SWAP2 POP PUSH1 0x20 DUP2 ADD SWAP1 POP PUSH1 0x20 DUP4 SUB SWAP3 POP PUSH2 0x132A JUMP JUMPDEST PUSH1 0x1 DUP4 PUSH1 0x20 SUB PUSH2 0x100 EXP SUB DUP1 NOT DUP3 MLOAD AND DUP2 DUP5 MLOAD AND DUP1 DUP3 OR DUP6 MSTORE POP POP POP POP POP POP SWAP1 POP ADD SWAP2 POP POP PUSH1 0x40 MLOAD DUP1 SWAP2 SUB SWAP1 KECCAK256 PUSH1 0x1 SWAP1 DIV SWAP1 POP PUSH1 0x2 SLOAD DUP2 DUP2 ISZERO ISZERO PUSH2 0x138F JUMPI INVALID JUMPDEST MOD SWAP2 POP POP SWAP2 SWAP1 POP JUMP JUMPDEST PUSH1 0x0 PUSH1 0x1 PUSH1 0x4 DUP1 SLOAD DUP1 PUSH1 0x1 ADD DUP3 DUP2 PUSH2 0x13B0 SWAP2 SWAP1 PUSH2 0x1827 JUMP JUMPDEST SWAP2 PUSH1 0x0 MSTORE PUSH1 0x20 PUSH1 0x0 KECCAK256 SWAP1 PUSH1 0x3 MUL ADD PUSH1 0x0 PUSH1 0xC0 PUSH1 0x40 MLOAD SWAP1 DUP2 ADD PUSH1 0x40 MSTORE DUP1 DUP9 DUP2 MSTORE PUSH1 0x20 ADD DUP8 DUP2 MSTORE PUSH1 0x20 ADD PUSH1 0x1 PUSH4 0xFFFFFFFF AND DUP2 MSTORE PUSH1 0x20 ADD PUSH1 0x3 SLOAD TIMESTAMP ADD PUSH4 0xFFFFFFFF AND DUP2 MSTORE PUSH1 0x20 ADD PUSH1 0x0 PUSH2 0xFFFF AND DUP2 MSTORE PUSH1 0x20 ADD PUSH1 0x0 PUSH2 0xFFFF AND DUP2 MSTORE POP SWAP1 SWAP2 SWAP1 SWAP2 POP PUSH1 0x0 DUP3 ADD MLOAD DUP2 PUSH1 0x0 ADD SWAP1 DUP1 MLOAD SWAP1 PUSH1 0x20 ADD SWAP1 PUSH2 0x142A SWAP3 SWAP2 SWAP1 PUSH2 0x1859 JUMP JUMPDEST POP PUSH1 0x20 DUP3 ADD MLOAD DUP2 PUSH1 0x1 ADD SSTORE PUSH1 0x40 DUP3 ADD MLOAD DUP2 PUSH1 0x2 ADD PUSH1 0x0 PUSH2 0x100 EXP DUP2 SLOAD DUP2 PUSH4 0xFFFFFFFF MUL NOT AND SWAP1 DUP4 PUSH4 0xFFFFFFFF AND MUL OR SWAP1 SSTORE POP PUSH1 0x60 DUP3 ADD MLOAD DUP2 PUSH1 0x2 ADD PUSH1 0x4 PUSH2 0x100 EXP DUP2 SLOAD DUP2 PUSH4 0xFFFFFFFF MUL NOT AND SWAP1 DUP4 PUSH4 0xFFFFFFFF AND MUL OR SWAP1 SSTORE POP PUSH1 0x80 DUP3 ADD MLOAD DUP2 PUSH1 0x2 ADD PUSH1 0x8 PUSH2 0x100 EXP DUP2 SLOAD DUP2 PUSH2 0xFFFF MUL NOT AND SWAP1 DUP4 PUSH2 0xFFFF AND MUL OR SWAP1 SSTORE POP PUSH1 0xA0 DUP3 ADD MLOAD DUP2 PUSH1 0x2 ADD PUSH1 0xA PUSH2 0x100 EXP DUP2 SLOAD DUP2 PUSH2 0xFFFF MUL NOT AND SWAP1 DUP4 PUSH2 0xFFFF AND MUL OR SWAP1 SSTORE POP POP POP SUB SWAP1 POP CALLER PUSH1 0x5 PUSH1 0x0 DUP4 DUP2 MSTORE PUSH1 0x20 ADD SWAP1 DUP2 MSTORE PUSH1 0x20 ADD PUSH1 0x0 KECCAK256 PUSH1 0x0 PUSH2 0x100 EXP DUP2 SLOAD DUP2 PUSH20 0xFFFFFFFFFFFFFFFFFFFFFFFFFFFFFFFFFFFFFFFF MUL NOT AND SWAP1 DUP4 PUSH20 0xFFFFFFFFFFFFFFFFFFFFFFFFFFFFFFFFFFFFFFFF AND MUL OR SWAP1 SSTORE POP PUSH2 0x1573 PUSH1 0x1 PUSH1 0x6 PUSH1 0x0 CALLER PUSH20 0xFFFFFFFFFFFFFFFFFFFFFFFFFFFFFFFFFFFFFFFF AND PUSH20 0xFFFFFFFFFFFFFFFFFFFFFFFFFFFFFFFFFFFFFFFF AND DUP2 MSTORE PUSH1 0x20 ADD SWAP1 DUP2 MSTORE PUSH1 0x20 ADD PUSH1 0x0 KECCAK256 SLOAD PUSH2 0x1775 SWAP1 SWAP2 SWAP1 PUSH4 0xFFFFFFFF AND JUMP JUMPDEST PUSH1 0x6 PUSH1 0x0 CALLER PUSH20 0xFFFFFFFFFFFFFFFFFFFFFFFFFFFFFFFFFFFFFFFF AND PUSH20 0xFFFFFFFFFFFFFFFFFFFFFFFFFFFFFFFFFFFFFFFF AND DUP2 MSTORE PUSH1 0x20 ADD SWAP1 DUP2 MSTORE PUSH1 0x20 ADD PUSH1 0x0 KECCAK256 DUP2 SWAP1 SSTORE POP PUSH32 0x88F026AACBBECC90C18411DF4B1185FD8D9BE2470F1962F192BF84A27D0704B7 DUP2 DUP5 DUP5 PUSH1 0x40 MLOAD DUP1 DUP5 DUP2 MSTORE PUSH1 0x20 ADD DUP1 PUSH1 0x20 ADD DUP4 DUP2 MSTORE PUSH1 0x20 ADD DUP3 DUP2 SUB DUP3 MSTORE DUP5 DUP2 DUP2 MLOAD DUP2 MSTORE PUSH1 0x20 ADD SWAP2 POP DUP1 MLOAD SWAP1 PUSH1 0x20 ADD SWAP1 DUP1 DUP4 DUP4 PUSH1 0x0 JUMPDEST DUP4 DUP2 LT ISZERO PUSH2 0x1626 JUMPI DUP1 DUP3 ADD MLOAD DUP2 DUP5 ADD MSTORE PUSH1 0x20 DUP2 ADD SWAP1 POP PUSH2 0x160B JUMP JUMPDEST POP POP POP POP SWAP1 POP SWAP1 DUP2 ADD SWAP1 PUSH1 0x1F AND DUP1 ISZERO PUSH2 0x1653 JUMPI DUP1 DUP3 SUB DUP1 MLOAD PUSH1 0x1 DUP4 PUSH1 0x20 SUB PUSH2 0x100 EXP SUB NOT AND DUP2 MSTORE PUSH1 0x20 ADD SWAP2 POP JUMPDEST POP SWAP5 POP POP POP POP POP PUSH1 0x40 MLOAD DUP1 SWAP2 SUB SWAP1 LOG1 POP POP POP JUMP JUMPDEST PUSH1 0x0 PUSH2 0x167F PUSH1 0x1 PUSH1 0x9 SLOAD PUSH2 0x1775 SWAP1 SWAP2 SWAP1 PUSH4 0xFFFFFFFF AND JUMP JUMPDEST PUSH1 0x9 DUP2 SWAP1 SSTORE POP DUP2 TIMESTAMP CALLER PUSH1 0x9 SLOAD PUSH1 0x40 MLOAD DUP1 DUP5 DUP2 MSTORE PUSH1 0x20 ADD DUP4 PUSH20 0xFFFFFFFFFFFFFFFFFFFFFFFFFFFFFFFFFFFFFFFF AND PUSH20 0xFFFFFFFFFFFFFFFFFFFFFFFFFFFFFFFFFFFFFFFF AND PUSH13 0x1000000000000000000000000 MUL DUP2 MSTORE PUSH1 0x14 ADD DUP3 DUP2 MSTORE PUSH1 0x20 ADD SWAP4 POP POP POP POP PUSH1 0x40 MLOAD DUP1 SWAP2 SUB SWAP1 KECCAK256 PUSH1 0x1 SWAP1 DIV DUP2 ISZERO ISZERO PUSH2 0x16F6 JUMPI INVALID JUMPDEST MOD SWAP1 POP SWAP2 SWAP1 POP JUMP JUMPDEST PUSH1 0x0 DUP1 DUP3 DUP5 ADD SWAP1 POP DUP4 PUSH2 0xFFFF AND DUP2 PUSH2 0xFFFF AND LT ISZERO ISZERO ISZERO PUSH2 0x171A JUMPI INVALID JUMPDEST DUP1 SWAP2 POP POP SWAP3 SWAP2 POP POP JUMP JUMPDEST PUSH1 0x3 SLOAD TIMESTAMP ADD DUP2 PUSH1 0x2 ADD PUSH1 0x4 PUSH2 0x100 EXP DUP2 SLOAD DUP2 PUSH4 0xFFFFFFFF MUL NOT AND SWAP1 DUP4 PUSH4 0xFFFFFFFF AND MUL OR SWAP1 SSTORE POP POP JUMP JUMPDEST PUSH1 0x0 TIMESTAMP DUP3 PUSH1 0x2 ADD PUSH1 0x4 SWAP1 SLOAD SWAP1 PUSH2 0x100 EXP SWAP1 DIV PUSH4 0xFFFFFFFF AND PUSH4 0xFFFFFFFF AND GT ISZERO SWAP1 POP SWAP2 SWAP1 POP JUMP JUMPDEST PUSH1 0x0 DUP1 DUP3 DUP5 ADD SWAP1 POP DUP4 DUP2 LT ISZERO ISZERO ISZERO PUSH2 0x1789 JUMPI INVALID JUMPDEST DUP1 SWAP2 POP POP SWAP3 SWAP2 POP POP JUMP JUMPDEST PUSH1 0x20 PUSH1 0x40 MLOAD SWAP1 DUP2 ADD PUSH1 0x40 MSTORE DUP1 PUSH1 0x0 DUP2 MSTORE POP SWAP1 JUMP JUMPDEST DUP3 DUP1 SLOAD PUSH1 0x1 DUP2 PUSH1 0x1 AND ISZERO PUSH2 0x100 MUL SUB AND PUSH1 0x2 SWAP1 DIV SWAP1 PUSH1 0x0 MSTORE PUSH1 0x20 PUSH1 0x0 KECCAK256 SWAP1 PUSH1 0x1F ADD PUSH1 0x20 SWAP1 DIV DUP2 ADD SWAP3 DUP3 PUSH1 0x1F LT PUSH2 0x17E8 JUMPI DUP1 CALLDATALOAD PUSH1 0xFF NOT AND DUP4 DUP1 ADD OR DUP6 SSTORE PUSH2 0x1816 JUMP JUMPDEST DUP3 DUP1 ADD PUSH1 0x1 ADD DUP6 SSTORE DUP3 ISZERO PUSH2 0x1816 JUMPI SWAP2 DUP3 ADD JUMPDEST DUP3 DUP2 GT ISZERO PUSH2 0x1815 JUMPI DUP3 CALLDATALOAD DUP3 SSTORE SWAP2 PUSH1 0x20 ADD SWAP2 SWAP1 PUSH1 0x1 ADD SWAP1 PUSH2 0x17FA JUMP JUMPDEST JUMPDEST POP SWAP1 POP PUSH2 0x1823 SWAP2 SWAP1 PUSH2 0x18D9 JUMP JUMPDEST POP SWAP1 JUMP JUMPDEST DUP2 SLOAD DUP2 DUP4 SSTORE DUP2 DUP2 ISZERO GT PUSH2 0x1854 JUMPI PUSH1 0x3 MUL DUP2 PUSH1 0x3 MUL DUP4 PUSH1 0x0 MSTORE PUSH1 0x20 PUSH1 0x0 KECCAK256 SWAP2 DUP3 ADD SWAP2 ADD PUSH2 0x1853 SWAP2 SWAP1 PUSH2 0x18FE JUMP JUMPDEST JUMPDEST POP POP POP JUMP JUMPDEST DUP3 DUP1 SLOAD PUSH1 0x1 DUP2 PUSH1 0x1 AND ISZERO PUSH2 0x100 MUL SUB AND PUSH1 0x2 SWAP1 DIV SWAP1 PUSH1 0x0 MSTORE PUSH1 0x20 PUSH1 0x0 KECCAK256 SWAP1 PUSH1 0x1F ADD PUSH1 0x20 SWAP1 DIV DUP2 ADD SWAP3 DUP3 PUSH1 0x1F LT PUSH2 0x189A JUMPI DUP1 MLOAD PUSH1 0xFF NOT AND DUP4 DUP1 ADD OR DUP6 SSTORE PUSH2 0x18C8 JUMP JUMPDEST DUP3 DUP1 ADD PUSH1 0x1 ADD DUP6 SSTORE DUP3 ISZERO PUSH2 0x18C8 JUMPI SWAP2 DUP3 ADD JUMPDEST DUP3 DUP2 GT ISZERO PUSH2 0x18C7 JUMPI DUP3 MLOAD DUP3 SSTORE SWAP2 PUSH1 0x20 ADD SWAP2 SWAP1 PUSH1 0x1 ADD SWAP1 PUSH2 0x18AC JUMP JUMPDEST JUMPDEST POP SWAP1 POP PUSH2 0x18D5 SWAP2 SWAP1 PUSH2 0x18D9 JUMP JUMPDEST POP SWAP1 JUMP JUMPDEST PUSH2 0x18FB SWAP2 SWAP1 JUMPDEST DUP1 DUP3 GT ISZERO PUSH2 0x18F7 JUMPI PUSH1 0x0 DUP2 PUSH1 0x0 SWAP1 SSTORE POP PUSH1 0x1 ADD PUSH2 0x18DF JUMP JUMPDEST POP SWAP1 JUMP JUMPDEST SWAP1 JUMP JUMPDEST PUSH2 0x198A SWAP2 SWAP1 JUMPDEST DUP1 DUP3 GT ISZERO PUSH2 0x1986 JUMPI PUSH1 0x0 DUP1 DUP3 ADD PUSH1 0x0 PUSH2 0x191D SWAP2 SWAP1 PUSH2 0x198D JUMP JUMPDEST PUSH1 0x1 DUP3 ADD PUSH1 0x0 SWAP1 SSTORE PUSH1 0x2 DUP3 ADD PUSH1 0x0 PUSH2 0x100 EXP DUP2 SLOAD SWAP1 PUSH4 0xFFFFFFFF MUL NOT AND SWAP1 SSTORE PUSH1 0x2 DUP3 ADD PUSH1 0x4 PUSH2 0x100 EXP DUP2 SLOAD SWAP1 PUSH4 0xFFFFFFFF MUL NOT AND SWAP1 SSTORE PUSH1 0x2 DUP3 ADD PUSH1 0x8 PUSH2 0x100 EXP DUP2 SLOAD SWAP1 PUSH2 0xFFFF MUL NOT AND SWAP1 SSTORE PUSH1 0x2 DUP3 ADD PUSH1 0xA PUSH2 0x100 EXP DUP2 SLOAD SWAP1 PUSH2 0xFFFF MUL NOT AND SWAP1 SSTORE POP PUSH1 0x3 ADD PUSH2 0x1904 JUMP JUMPDEST POP SWAP1 JUMP JUMPDEST SWAP1 JUMP JUMPDEST POP DUP1 SLOAD PUSH1 0x1 DUP2 PUSH1 0x1 AND ISZERO PUSH2 0x100 MUL SUB AND PUSH1 0x2 SWAP1 DIV PUSH1 0x0 DUP3 SSTORE DUP1 PUSH1 0x1F LT PUSH2 0x19B3 JUMPI POP PUSH2 0x19D2 JUMP JUMPDEST PUSH1 0x1F ADD PUSH1 0x20 SWAP1 DIV SWAP1 PUSH1 0x0 MSTORE PUSH1 0x20 PUSH1 0x0 KECCAK256 SWAP1 DUP2 ADD SWAP1 PUSH2 0x19D1 SWAP2 SWAP1 PUSH2 0x18D9 JUMP JUMPDEST JUMPDEST POP JUMP STOP LOG1 PUSH6 0x627A7A723058 KECCAK256 AND TIMESTAMP 0xd8 NOT 0xc DUP7 0x1d 0xe2 0xe0 LT 0xe1 DUP7 0x2f SWAP4 CALLDATASIZE 0x5f INVALID 0x2a 0xbb DUP3 CALLVALUE 0xb6 DUP13 GT SWAP2 DUP9 0xe5 0xb8 PUSH5 0xBD97FC0029 "
				},
				"gasEstimates": {
					"creation": {
						"codeDepositCost": "1331400",
						"executionCost": "126931",
						"totalCost": "1458331"
					},
					"external": {
						"attack(uint256,uint256)": "infinite",
						"changeDna(uint256,uint256)": "21607",
						"changeName(uint256,string)": "infinite",
						"createRandomZombie(string)": "infinite",
						"feedOnKitty(uint256,uint256)": "infinite",
						"getZombiesByOwner(address)": "infinite",
						"levelUp(uint256)": "infinite",
						"owner()": "632",
						"setKittyContractAddress(address)": "20845",
						"setLevelUpFee(uint256)": "20696",
						"transferOwnership(address)": "22824",
						"withdraw()": "infinite",
						"zombieToOwner(uint256)": "643",
						"zombies(uint256)": "infinite"
					},
					"internal": {
						"randMod(uint256)": "infinite"
					}
				},
				"methodIdentifiers": {
					"attack(uint256,uint256)": "e1fa7638",
					"changeDna(uint256,uint256)": "5faf2880",
					"changeName(uint256,string)": "c39cbef1",
					"createRandomZombie(string)": "7bff0a01",
					"feedOnKitty(uint256,uint256)": "17a7f4cc",
					"getZombiesByOwner(address)": "4412e104",
					"levelUp(uint256)": "0ce90ec2",
					"owner()": "8da5cb5b",
					"setKittyContractAddress(address)": "5f4623f1",
					"setLevelUpFee(uint256)": "ccf670f8",
					"transferOwnership(address)": "f2fde38b",
					"withdraw()": "3ccfd60b",
					"zombieToOwner(uint256)": "528b7b8f",
					"zombies(uint256)": "2052465e"
				}
			},
			"userdoc": {
				"methods": {}
			}
		}
	}
}